:020000040800F2
:10000000B00C002029230008790400087B040008B4
:100010007F04000883040008870400080000000033
:100020000000000000000000000000008B04000839
:100030008D040008000000008F04000891040008EF
:100040004323000843230008432300082F1B000814
:1000500043230008432300084323000843230008E8
:1000600043230008432300084323000843230008D8
:1000700043230008432300084323000843230008C8
:1000800043230008432300084323000843230008B8
:1000900043230008432300084323000843230008A8
:1000A0004323000843230008432300084323000898
:1000B00043230008E7070008432300084323000800
:1000C0004323000843230008432300084323000878
:1000D000432300084B210008432300084323000862
:1000E000432300084323000843230008DFF810D00F
:1000F00005F06EFF0048004739030008AFF30080A9
:10010000B00C002010B5002000F0F2FA0446032CD9
:100110000AD101F0E5FD01F0F1FDC0480068C043DF
:10012000BF49C1F8B40114E0022C08D101F0DFFD91
:10013000BA480068C043BA49C1F8B40109E0012CCB
:1001400007D101F0C6FDB5480068C043B449C1F805
:10015000B401B448006841F29A01884204D901F020
:10016000BFFD0120B0490870AF480078012808D1D0
:10017000AC48006841F26801884202D20020AA49D6
:100180000870AA48006840F68C21884204D201F029
:10019000B5FD0120A6490870A5480078012808D1BE
:1001A000A248006840F6B831884202D90020A04930
:1001B0000870A049A048006805F016FE01D201F0C1
:1001C000B0FD10BD10B510219C4802F02DFA9C49DD
:1001D00008700821994802F027FA9A49087098484F
:1001E000007818B100209649087002E00120944977
:1001F00008709448007818B100209249087002E015
:100200000120904908708E4800788F4981F82700B6
:100210008C48007881F82800084690F827008B4920
:10022000C870894890F82800087110BD10B586483C
:100230008078874988708448C078C870824800797F
:1002400008718148407948717F48807988717E487B
:10025000C079C8717C48007A7E4988707A48407AB3
:10026000C8707948807A08717748C07A48717648B2
:10027000007B88717448407BC8717348807B7649E5
:1002800088707148C07BC8706F48007C08716E48E8
:10029000407C48716C48807C88716B48C07CC87118
:1002A0006948007D6D4988706748407DC870664820
:1002B000807D08716448C07D48716348007E887104
:1002C0006148407EC87101220821614801F09EFD0D
:1002D000012001F0A4FE022208215E4801F096FDF3
:1002E000012001F09CFE032208215B4801F08EFDF5
:1002F000012001F094FE04220821584801F086FDF7
:10030000012001F08CFE05220821554801F07EFDF8
:10031000012001F084FE06220821524801F076FDFA
:10032000012001F07CFE07220821484801F06EFD03
:10033000012001F074FE10BD08B54FF4E01001F08B
:10034000EFF901F02FFE4FF4A06001F0FFFF00F085
:1003500091F900F0BDF901F08BFC01F0AFFD4FF415
:10036000E13001F0A6FE00200423082207210090BE
:1003700001F0E8FC00F0F3FA01F04EF947214FF6E6
:10038000FF7000F09DFA25480068C0432449C1F879
:10039000B40141E000F020FB334A0121002000F0CD
:1003A000D6FB00F040FB314A0121002000F0ABFCFD
:1003B00000F088FE2E4A0121002000F0E9FE04F042
:1003C0002FFE04F0EAFD04F0B1FD04F048FE04F055
:1003D000DEFEFFF7F7FE04F018FF2648007801283C
:1003E00013D104F03CFE204A0121002000F0AFFBB5
:1003F00004F016FE04F017FF08480068C0430849DF
:10040000C1F8B40100201B4908701E2004F084FECE
:10041000FFF778FE01F01CFFBCE70000B4012242A8
:10042000000022421C0300200100002020030020C5
:10043000020000200000FA4424030020000C0140C8
:100440000600002007000020540000200E030020BA
:10045000DE020020E6020020EE020020F60200206C
:10046000FE0200200603002084050020D0040020A6
:100470001C04002004000020704700BFFEE700BFFE
:10048000FEE700BFFEE700BFFEE77047704770471A
:10049000704700000CB50020019000906C48006887
:1004A00040F480306A49086000BF6948006800F481
:1004B000003000900198401C0190009818B90198F4
:1004C000B0F5A06FF1D16248006800F4003010B1BF
:1004D0000120009001E0002000900098012843D105
:1004E0005C48006840F010005A49086008460068FF
:1004F00020F0030008600846006840F00200086031
:100500005348406852494860084640684860084679
:10051000406840F4806048600846406820F47C10E1
:1005200048600846406840F4E810486008460068A3
:1005300040F08070086000BF4548006800F000701F
:100540000028F9D04248406820F003004049486044
:100550000846406840F00200486000BF3C484068E0
:1005600000F00C000828F9D10CBD10B5FFF792FF80
:1005700010BD10B53648006840F0010034490860ED
:1005800008464068344908403149486008460068D8
:10059000324908402E4908600846006820F480204F
:1005A00008600846406820F4FE0048604FF41F00D1
:1005B0008860FFF7DAFF4FF000602949086010BD3E
:1005C00010B5002100200022214B5B6803F00C01D4
:1005D00021B1042906D0082928D107E0214B224C5B
:1005E000236027E01F4B204C236023E0184B5B68FF
:1005F00003F47010164B5B6803F48032022303EBA4
:10060000904022B9194B4343174C23600DE0104B27
:100610005B6803F4003323B1144B4343124C236053
:1006200003E0104B4343104C236003E00D4B0E4C92
:10063000236000BF00BF064B5B68C3F303130C4C81
:10064000E15C094B1B68CB40074C236010BD0000E8
:1006500000100240002002400000FFF8FFFFF6FEFD
:1006600008ED00E000127A000C00002000093D00B7
:100670001000002008B50121182002F0F1F94FF414
:100680000050ADF8000010208DF8030003208DF815
:10069000020069460C4801F027FF4FF400510A4858
:1006A00001F0CFFF2020ADF8000010208DF80300EE
:1006B00003208DF802006946044801F015FF20214F
:1006C000024801F0BEFF08BD00100140000C0140CF
:1006D00008B50121042002F0C3F90E20ADF8000096
:1006E00048208DF803006946264801F0FDFE08BD4C
:1006F00010B5044614B1012023490870224800783F
:1007000048B302211F4801F082FF48B104211D486F
:1007100001F07DFF20B108211A4801F078FFD0B91F
:100720000A2001F07CFC00201749087002211548BE
:1007300001F06DFF08B9012010BD0421114801F03E
:1007400066FF08B90220F7E708210E4801F05FFFB5
:10075000A8B90320F0E702210A4801F058FF012858
:100760000DD10421074801F052FF012807D10821CB
:10077000044801F04CFF012801D103490870002012
:10078000DAE7000000080140200000207FB50546A0
:100790000C460121022002F070F9ADF80850ADF8C6
:1007A00004400020ADF80A00ADF8060001A95A483F
:1007B00002F08EFA01221146574802F000FE1D2079
:1007C0008DF8000000208DF8010003208DF8020054
:1007D00001208DF80300684601F0BDFD01214E485F
:1007E00002F0D2FD7FBD10B501214B4803F095F812
:1007F00058B10121484803F0A1F84848006808B9F9
:10080000012000E000204549086010BD30B589B0E6
:1008100005460C460121022002F02FF9012111208A
:1008200002F01EF901213E4801F02FFF4FF47070D5
:10083000ADF8200018208DF8230003208DF8220049
:1008400008A9384801F050FEADF81850ADF8144032
:100850000020ADF81A00ADF8160005A92E4802F0E8
:1008600037FA6020ADF804000120ADF80600002042
:10087000ADF80C0001A9284802F067FA08212648C3
:1008800002F0B2FE01A9244802F0A1FA0821224890
:1008900002F0B3FE01A9204802F0E6FA08211E4842
:1008A00002F0B8FE01A91C4802F029FB08211A48F1
:1008B00002F0B9FE0121184802F066FD09B030BD12
:1008C0003EB505460C460121084602F0D6F8ADF8C3
:1008D0000450ADF800400020ADF80600ADF802006D
:1008E00069464FF0804002F0F3F90121880702F0D9
:1008F0004BFD3EBD10B54FF0804002F0FCFF10BD37
:100900000246914201D3881A70474FF6FF70801A51
:100910000844401CF8E70000000400409481214294
:10092000000C1A000010014070B50C46C0F34001E5
:100930008D1CFE4E3570C507290E01F1600505EBD3
:10094000041515447570C0F340010D1DF84E357047
:10095000C507290E01F160051D44757070BD00B515
:1009600000231A4619460220FFF7DEFF00BD70B5CE
:1009700005460E46002404E0305D00F084FE601C55
:10098000C4B2AC42F8DB70BD10B54FF48051E948F9
:1009900001F059FE012001F042FB4FF48051E5487F
:1009A00001F04FFE10BD30B503460C461021002269
:1009B0000BE0A05C80EAE110C5B2DF4830F825000A
:1009C00080EA012081B2501CC2B29A42F1DB4FF69C
:1009D000FF7000EA410030BD38B5D44800788DF88A
:1009E0000000D24840788DF80100D0490220FFF77E
:1009F000DAFF044620128DF80200E0B28DF8030001
:100A0000FFF7C2FFFFF7C0FF4FF48051C94801F064
:100A10001AFE69460420FFF7AAFF4FF48051C5482B
:100A200001F00FFE38BD38B5C14800788DF80000E0
:100A3000BF4840788DF80100BD490220FFF7B3FFA1
:100A4000044620128DF80200E0B28DF80300FFF793
:100A50009BFFFFF799FF4FF48051B64801F0F3FD7B
:100A600069460420FFF783FF4FF48051B14801F03D
:100A7000E8FD38BD2DE9F04105460E46174698467B
:100A8000002404E0285D00F0FEFD601CC4B2B44206
:100A9000F8DB002405E0002000F0F5FD3855601C6F
:100AA000C4B24445F7DBBDE8F0812DE9F8430446C4
:100AB0000E4617464FF00808012C06D104208DF889
:100AC000010000208DF8000019E0022C06D106205C
:100AD0008DF8010000208DF8000010E0032C06D1F5
:100AE00008208DF8010000208DF8000007E0042C9C
:100AF00005D10A208DF8010000208DF8000069461C
:100B00000220FFF750FF054628128DF80200E8B2D8
:100B10008DF80300FFF738FFFFF736FFFFF734FFCC
:100B2000FFF732FFFFF730FF4FF48051814801F0AB
:100B30008AFDF006030E3A4604216846FFF79AFF45
:100B40004FF480517B4801F07CFDBDE8F8832DE92E
:100B5000F74FA2B083460820219006202090032062
:100B60001F90002000900024BBF1000F44D101270A
:100B70003FE0002401AA38462399FFF796FF00259D
:100B800032E0002617E001A8015D01AA601C105C9C
:100B900001EB00201FFA80F805EB4501249800EBDB
:100BA000C101781E00EB4000304421F81080A01CE9
:100BB000C4B2701CC6B2032EE5DB01A9601C085C40
:100BC000095D00EB01201FFA80FA01A800EBC501C6
:100BD0000620FFF7E8FE8146CA4501D0FF200090BD
:100BE000A01CC4B2681CC5B223988542C9DB781C1E
:100BF000C7B2052FBDDB3DE001AA58462399FFF798
:100C000054FF002533E0002618E001A8015D01AA89
:100C1000601C105C01EB00201FFA80F805EB450119
:100C2000249800EBC101ABF1010000EB400030441F
:100C300021F81080A01CC4B2701CC6B2032EE4DBE5
:100C400001A9601C085C095D00EB01201FFA80FA15
:100C500001A800EBC5010620FFF7A5FE8146CA45A5
:100C600001D0FF200090A01CC4B2681CC5B223981C
:100C70008542C8DB009825B0BDE8F08F2DE9F84328
:100C800004460E4617464FF00808012C06D10C20EA
:100C90008DF8010000208DF800000EE0022C06D136
:100CA0000E208DF8010000208DF8000005E00C20DA
:100CB0008DF8010000208DF8000069460220FFF742
:100CC00072FE054628128DF80200E8B28DF8030086
:100CD000FFF75AFEFFF758FEFFF756FEFFF754FEE8
:100CE0004FF48051134801F0AEFCF006030E3A4673
:100CF00004216846FFF7BEFE4FF480510D4801F015
:100D0000A0FCBDE8F8832DE9F74FA2B08346082088
:100D100021900620209003201F90002400200090A6
:100D2000BBF1000F4ED1012749E000002100002057
:100D300023000020000C01404C6D0008002401AA93
:100D400038462399FFF79AFF002533E0002617E085
:100D500001A8015D01AA601C105C01EB00201FFAD4
:100D600080F905EB4501249800EB8101781E00EB2A
:100D70004000304421F81090A01CC4B2701CC6B2D0
:100D8000032EE5DB01A9601C085C095D00EB012076
:100D90001FFA80FA01A800EBC5010620FFF703FE49
:100DA0008046C24502D04FF0FF300090A01CC4B274
:100DB000681CC5B223988542C8DB781CC7B2032FD4
:100DC000BCDB3EE001AA58462399FFF757FF0025F8
:100DD00034E0002618E001A8015D01AA601C105C47
:100DE00001EB00201FFA80F905EB4501249800EB88
:100DF0008101ABF1010000EB4000304421F810907C
:100E0000A01CC4B2701CC6B2032EE4DB01A9601C96
:100E1000085C095D00EB01201FFA80FA01A800EBD5
:100E2000C5010620FFF7BFFD8046C24502D04FF046
:100E3000FF300090A01CC4B2681CC5B22398854244
:100E4000C7DB009825B0BDE8F08F38B507208DF8D6
:100E5000000011208DF8010069460220FFF7A3FD74
:100E6000044620128DF80200E0B28DF80300FFF76F
:100E70008BFDFFF789FD4FF48051FE4801F0E3FB45
:100E800000231A4604216846FFF7F4FD4FF4805111
:100E9000F84801F0D6FB38BD38B507208DF80000C2
:100EA00012208DF8010069460220FFF77CFD044600
:100EB00020128DF80200E0B28DF80300FFF764FD08
:100EC000FFF762FD4FF48051EA4801F0BCFB0023BC
:100ED0001A4604216846FFF7CDFD4FF48051E548DE
:100EE00001F0AFFB38BD2DE9F04F9FB007468846B3
:100EF0004FF0060BF800001D00F0FF0A00208DF8EF
:100F0000000001208DF801003D208DF802006E20C8
:100F10008DF8030004243E4628E04FF000090EE05F
:100F2000701E00EB400008EB400010F809000DF8BF
:100F30000400601CC4B209F1010000F0FF09B9F11E
:100F4000060FEDDB701E00EB400008EB40010620B1
:100F5000FFF729FD054628120DF80400E9B2601CD0
:100F60000DF80010A01CC4B2701EC6B2002ED4DC56
:100F7000FFF70AFDFFF708FD4FF48051BD4801F06F
:100F800062FB69465046FFF7F2FC4FF48051B948C6
:100F900001F057FB1FB0BDE8F08F2DE9F04F87B08F
:100FA00007460D464FF0080B4FF0000A00208DF861
:100FB000180002208DF819002B208DF81A000A2045
:100FC0008DF81B00FFF7E0FCFFF7DEFC4FF48051CB
:100FD000A84801F038FBF806030E01AA042106A870
:100FE000FFF748FD4FF48051A24801F02AFB00248E
:100FF00022E0002608E006EBC40001A9085C05EB2E
:10100000C4018855701CC6B2082EF4DB05EBC40081
:10101000C07905EBC401897900EB01201FFA80F942
:1010200005EBC4010620FFF7BEFC8046C14501D098
:101030004FF0FF3A601CC4B2BC42DADB504607B046
:10104000BDE8F08F01460A4600E0521E002AFCD19E
:10105000002000E0401C6428FCD3704710B54FF41A
:101060008051844801F0EFFA012000F0D8FF4FF4DE
:101070008051804801F0E5FA10BD38B502208DF8A6
:101080000000A7208DF8010069460220FFF78BFCC5
:10109000044620128DF80200E0B28DF80300FFF73D
:1010A00073FCFFF771FC4FF48051724801F0CBFAEA
:1010B00069460420FFF75BFC4FF480516D4801F056
:1010C000C0FA38BD38B505208DF80000E8208DF84D
:1010D000010069460220FFF766FC044620128DF8E5
:1010E0000200E0B28DF80300FFF74EFCFFF74CFC66
:1010F0004FF480515F4801F0A6FA69460420FFF7DB
:1011000036FC4FF480515B4801F09BFA38BD2DE965
:10111000F84304460E4617464FF00808012C06D146
:1011200010208DF8010000208DF800000EE0022C48
:1011300006D112208DF8010000208DF8000005E096
:1011400010208DF8010000208DF800006946022073
:10115000FFF729FC054628128DF80200E8B28DF849
:101160000300FFF711FCFFF70FFC4FF480514148DB
:1011700001F069FAF006030E3A4604216846FFF7CB
:1011800079FC4FF480513B4801F05BFABDE8F883ED
:101190002DE9F74F8CB0834608200B9006200A906B
:1011A00003200990002400200090BBF1000F45D1DE
:1011B000012740E0002401AA38460D99FFF7A7FF58
:1011C000002533E0002617E001A8015D01AA601C9C
:1011D000105C01EB00201FFA80F905EB45010E9829
:1011E00000EB8101781E00EB4000304421F81090A4
:1011F000A01CC4B2701CC6B2032EE5DB01A9601CA2
:10120000085C095D00EB01201FFA80FA01A800EBE1
:10121000C5010620FFF7C7FB8046C24502D04FF04C
:10122000FF300090A01CC4B2681CC5B20D98854266
:10123000C8DB781CC7B2032FBCDB41E001AA5846CB
:101240000D99FFF764FF002537E000261BE001A899
:10125000015D01AA601C105C01EB00201FFA80F9FF
:1012600005EB45010E9800EB8101ABF1010000EBAD
:10127000400001E0000C0140304421F81090A01C17
:10128000C4B2701CC6B2032EE1DB01A9601C085C6D
:10129000095D00EB01201FFA80FA01A800EBC501EF
:1012A0000620FFF780FB8046C24502D04FF0FF309A
:1012B0000090A01CC4B2681CC5B20D988542C4DB66
:1012C00000980FB0BDE8F08F38B505208DF800000C
:1012D000EF208DF8010069460220FFF764FB044609
:1012E00020128DF80200E0B28DF80300FFF74CFBEE
:1012F000FFF74AFBFFF748FBFFF746FBFFF744FB0E
:101300004FF48051C24801F09EF969460420FFF76E
:101310002EFB4FF48051BE4801F093F938BD30B533
:1013200099B00446522103A804F03FFAB94903C911
:10133000CDE901019DF804008DF860009DF80500DD
:101340008DF8610018A90220FFF72DFB0546281231
:101350008DF80600E8B28DF807009DF80800E1B2AC
:1013600008438DF808009DF80900C4F303210843E1
:101370008DF8090001A90120FFF7B5FD19B030BDB6
:1013800038B502208DF80000E8208DF8010069468C
:101390000220FFF708FB044620128DF80200E0B29D
:1013A0008DF80300FFF7F0FAFFF7EEFA4FF48051E3
:1013B000974801F048F969460420FFF7D8FA4FF43E
:1013C0008051934801F03DF938BD38B502208DF8C1
:1013D0000000A8208DF8010069460220FFF7E3FA1B
:1013E000044620128DF80200E0B28DF80300FFF7EA
:1013F000CBFAFFF7C9FA4FF48051854801F023F981
:1014000069460420FFF7B3FA4FF48051804801F099
:1014100018F938BD2DE9F04FA1B0074688460620DF
:101420002090F800001D00F0FF0B07208DF804004D
:1014300021208DF8050001A90220FFF7B4FA8246A9
:101440004FEA2A208DF806000AF0FF008DF8070009
:1014500004243E4627E04FF000090EE0701E00EB2A
:10146000400008EB400010F8090001A90855601C75
:10147000C4B209F1010000F0FF09B9F1060FEDDB7C
:10148000701E00EB400008EB40010620FFF78BFACE
:101490000546281201A9085501AA601C1554A01C74
:1014A000C4B2701EC6B2002ED5DCFFF76DFAFFF78E
:1014B0006BFA4FF48051564801F0C5F801A958461F
:1014C000FFF755FA4FF48051514801F0BAF821B0B6
:1014D000BDE8F08FF0B59FB00446E000001DC7B234
:1014E000002507208DF8000023208DF801006946B3
:1014F0000220FFF758FA064630128DF80200F0B2CB
:101500008DF80300FFF740FAFFF73EFA4FF48051E1
:101510003F4801F098F869463846FFF728FA00BFBF
:1015200010E04FF400513A4801F08BF80A2000F027
:1015300052FD4FF40051364801F085F80A2000F0C2
:101540004AFD6D1C482DECDB4FF48051304801F012
:1015500078F81FB0F0BD2DE9F04F87B007460D4673
:10156000082006904FF0000B07208DF81400222071
:101570008DF8150005A90220FFF715FA81464FEAFC
:1015800029208DF8160009F0FF008DF81700FFF7ED
:10159000FBF9FFF7F9F94FF480511D4801F053F8BA
:1015A000F806030E6A46042105A8FFF763FA4FF414
:1015B0008051174801F045F8002422E0002608E099
:1015C00006EBC4001DF8000005EBC4018855701C33
:1015D000C6B2082EF4DB05EBC400C07905EBC401EC
:1015E000897900EB01201FFA80FA05EBC40106207F
:1015F000FFF7D9F98046C24501D04FF0FF3B601C90
:10160000C4B2BC42DADB584607B0BDE8F08F000038
:10161000000C01404C71000808B50121082001F0C0
:101620001FFA4FF48050ADF8000010208DF8030031
:1016300003208DF802006946384800F055FF4FF44A
:101640002040ADF8000010208DF8030003208DF835
:1016500002006946314800F047FF4FF48040ADF882
:10166000000048208DF8030069462C4800F03CFF3C
:101670004FF48051294800F0E4FF4FF4005127480F
:1016800000F0DFFF08BD70B504460025002631E0FC
:101690004FF40051214800F0D6FF012000F09BFCE0
:1016A00004F0800028B14FF400411C4800F0C9FF4D
:1016B00004E04FF40041194800F0C5FF6006040E35
:1016C000012000F088FC4FF40051144800F0B9FFED
:1016D000012000F080FC6806050E4FF480410F48A1
:1016E00000F095FF08B145F00105012000F073FC02
:1016F000701CC6B2082ECBDB4FF40051074800F037
:10170000A2FF284670BD10B5FF20FFF7BCFF10BD3B
:1017100010B504462046FFF7B6FF10BD000C01408F
:101720001CB5044600200190009001F02BF84FF406
:10173000803001F047F801F084F80090009801280B
:1017400020D1002001F0C3F8002001F0D2F84FF4BE
:10175000806001F0C5F821464FF4803001F09AF81E
:10176000012001F0A3F800BF392001F04EF8002855
:10177000FAD0022001F09DF800BF01F0A3F808287C
:10178000FBD101E000BFFEE71CBD38B504460020D8
:10179000009000F0F7FF012001F079F8154800688B
:1017A00000F002000090009802281FD1002001F0F4
:1017B0008EF8002001F09DF84FF4806001F090F861
:1017C0002146002001F066F8012001F06FF800BF0B
:1017D000392001F01AF80028FAD0022001F069F847
:1017E00000BF01F06FF80828FBD101E000BFFEE761
:1017F00038BD00000010024008B503208DF800003D
:1018000000208DF801008DF8020001208DF8030002
:10181000684600F0A0FD08BDF0B503460C4615462D
:10182000642093FBF0F0C6B2642093FBF0F700FB5A
:101830001730C1B2132E02DD01F16400C1B20846B7
:10184000CF1701EB977701EBA707BAB2072092FBFE
:10185000F0F700FB172082B25719601EDFF8D4C3DF
:101860001CF80000384482B2CF1701EB9777BF1005
:10187000A1EB87071FB9032C01DA501E82B20720A3
:1018800092FBF0F700FB1720C0B2F0BD0146CA176B
:1018900001EB92729210A1EB820292B9642091FB4B
:1018A000F0F200FB121050B94FF4C87091FBF0F247
:1018B00000FB121008B9012070470020FCE701204E
:1018C000FAE70020F8E770B500260024002502F0B2
:1018D00025FB0646D848B6FBF0F4D8480088A0425D
:1018E0003CD0D6490C8040F2B27510E02846FFF794
:1018F000CDFF40B1B4F5B77F02D3A4F5B77404E0CF
:10190000681C85B206E0A4F26D14681C85B2B4F5BB
:10191000B67FEBD800BFCA488580002516E0C849CD
:101920008888FFF7B3FF30B1012D04D11D2C01D3FE
:101930001D3C09E00CE0C348405DA04203D8C1480B
:10194000405D241A00E003E0681C85B21C2CE6D23E
:1019500000BF681CBA498871601CC871B648B6FBE4
:10196000F0F100FB11644FF46160B4FBF0F0B44996
:1019700008704FF46160B4FBF0F100FB11403C21B2
:10198000B0FBF1F0AE4948704FF46160B4FBF0F188
:1019900000FB11403C21B0FBF1F201FB1200A84911
:1019A00088700B46DA7999799888FFF735FFA44952
:1019B0000872002070BD2DE9F05F06460F46904684
:1019C0009946DDE90AAB002440F2B270864203DB9F
:1019D00040F63300864202DD0120BDE8F09F40F270
:1019E000B2750AE02846FFF751FF10B1964804444B
:1019F00001E096480444681C85B2B542F2DB781ECB
:101A0000C7B2002510E08F48405D40F2A321484353
:101A100004EBC0143046FFF739FF18B1012D01D196
:101A200085480444681C85B2BD42ECDBA8F1010086
:101A300040F2A321484304EBC014C9EB4910C0EBAA
:101A4000092004EB0014CAEB0A1004EB80045C4488
:101A500001214FF0C05001F010F8012002F0E3F92D
:101A6000204602F064FA02F095FA0020B5E71CB5B2
:101A7000002401214FF0C05000F0FFFF012002F0D0
:101A8000D2F9042002F097F945F25001884240D083
:101A900002F05CF9012000F050FF04E0601CC4B2C9
:101AA0000A2000F0BCFA412000F0AFFE08B9FA2C81
:101AB000F4DBFA2C01DB01201CBD4FF4807000F038
:101AC00058FF012000F05BFF02F064FA02F06BFAAD
:101AD0000121084602F002FA02F05CFA02F00BFA69
:101AE00047F6FF7002F030FA02F054FA00203B2172
:101AF00010230B22CDE90010022140F2E670FFF71F
:101B00005AFF02F001FA45F25001042002F047F9B1
:101B100007E002F048FA0121084602F0DFF902F07E
:101B200039FAFFF769FEFFF7CEFE0020C4E70EB5D5
:101B3000012002F05DFA08B1FFF7C5FE022002F0B5
:101B400057FAA0B1022002F063FAFFF7BCFE3C484E
:101B500080783B4949783A4A1278CDE900210290D1
:101B60003748C3798279818839A004F06FFA05205B
:101B700002F04EFA02F00EFA0EBD2DE9F05F0646B5
:101B80000F4690469946DDE90AAB002440F2B27058
:101B9000864203DB40F63300864202DD0120BDE8C9
:101BA000F09F40F2B2750AE02846FFF76FFE10B1D1
:101BB0002548044401E025480444681C85B2B54228
:101BC000F2DB781EC7B2002510E01E48405D40F2EF
:101BD000A321484304EBC0143046FFF757FE18B169
:101BE000012D01D114480444681C85B2BD42ECDBD0
:101BF000A8F1010040F2A321484304EBC014C9EB53
:101C00004910C0EB092004EB0014CAEB0A1004EBE6
:101C100080045C4401214FF0C05000F02EFF0120F1
:101C200002F001F9204602F09DF902F0B3F900201C
:101C3000B5E7000054710008805101003400002015
:101C400048030020607100080085E2018033E10153
:101C5000416C61726D2054696D653A25642D25646F
:101C60002D25642025643A25643A25640A00000085
:101C700008B50121082000F0F3FE0121092000F041
:101C8000EFFE01212D4800F000FD0820ADF8000016
:101C900010208DF8030003208DF8020069462848C3
:101CA00000F022FC01220821254800F0CEFC102083
:101CB000ADF800008DF8030003208DF8020069469E
:101CC0001F4800F011FC012210211D4800F0BDFC4E
:101CD00008BD10B500220821194800F0B6FC10BD5F
:101CE00010B501220821164800F0AFFC10BD10B558
:101CF00000221021124800F0A8FC10BD10B50122EE
:101D000010210F4800F0A1FC10BD10B500220821E1
:101D10000B4800F09AFC00221021094800F095FCC5
:101D200010BD10B501220821054800F08EFC0122EB
:101D30001021034800F089FC10BD000000023000B3
:101D4000000C01402DE9F04188B004460D461646CE
:101D50001F46DDF838800121042000F081FE0121BA
:101D6000480600F08AFE4FF48050ADF81C000320B6
:101D70008DF81E0018208DF81F0007A94D4800F0AF
:101D8000B3FB4FF40060ADF81C0048208DF81F0035
:101D900007A9484800F0A8FB00208DF816008DF830
:101DA00017008DF8180001208DF8190000208DF81B
:101DB0001A008DF81B008DF812808DF813408DF8F5
:101DC00014608DF81550ADF8107004A93A4802F06F
:101DD00042F900208DF80A008DF80B0001208DF8E3
:101DE0000C000020ADF80000ADF80200ADF80400D2
:101DF000ADF80600ADF8080001208DF80D0068462A
:101E000002F0B3F9002008B0BDE8F0812DE9F041FF
:101E100086B007460D4690460024CDF80880042081
:101E20008DF80C0000208DF80D008DF80E5000BFCD
:101E300005E0395D0DF10F000155601C84B2AC4224
:101E4000F7DB01A91C4802F07FFA0646002401E0F6
:101E5000601C84B23146184802F00EFB18B940F6F7
:101E6000FF708442F4DB40F6FF70844203DB012004
:101E700006B0BDE8F0810020FAE730B585B0054630
:101E800000210D4802F0D8FB10B9002005B030BD8C
:101E90006A460021084802F04CFB002404E00DF1E2
:101EA0000B00005D2855641C082CF8D39DF80A002F
:101EB000ECE70000000801400064004000B587B076
:101EC00001214FF4017000F0CBFD4FF4004000F011
:101ED0002BFD2020ADF8040000208DF8070001A99B
:101EE0002E4800F001FB2E4802F094FD00200290E5
:101EF0008DF80C008DF80D004FF460200490002048
:101F0000059001208DF8180002A9254802F0A9FDCE
:101F10000121234802F0D1FD214802F0F0FD00BF6D
:101F20001F4802F0F1FD0028FAD11D4802F0F6FD2D
:101F300000BF1B4802F0F7FD0028FAD107B000BD32
:101F400010B50446032301222146154802F021FE64
:101F50000121134802F0F1FD00BF0221104802F0F8
:101F60005DFF0028F9D00E4802F07AFE10BD2DE981
:101F7000F04107460C460025002608E03846FFF7EA
:101F8000DFFF0544052000F04AF8701CC6B2A642E7
:101F9000F4DBB5FBF4F080B2BDE8F081000801404D
:101FA0000024014010B56FF0040000F01EFA2E4826
:101FB00000682E49B0FBF1F02D4908700846007802
:101FC00000EB4001C1EBC0104FF6FF7101EAC00009
:101FD0002849088010BD0146254A12784A434FF02F
:101FE000E0235A6100229A611A46126942F0010206
:101FF0001A6100BF4FF0E022106900F001021AB12F
:1020000000F48032002AF5D04FF0E022126922F06D
:1020100001024FF0E0231A6100229A6170470146E5
:10202000144A12884A434FF0E0235A6100229A6111
:102030001A46126942F001021A6100BF4FF0E02215
:10204000106900F001021AB100F48032002AF5D0C4
:102050004FF0E022126922F001024FF0E0231A61F2
:1020600000229A61704700000C00002000127A00E4
:10207000360000203800002070B504460D46E1B25D
:10208000A14801F09BFD00BF40219F4801F004FEE4
:102090000028F9D0204670BD00BF9B48008800F0A2
:1020A00020000028F9D09848001D0088C0F30800DF
:1020B000704710B586B00446012144F2040000F0D8
:1020C000CFFC4FF40070ADF8140003208DF816001B
:1020D00018208DF8170005A98C4800F005FA4FF478
:1020E0008060ADF8140004208DF8170005A987481A
:1020F00000F0FAF925208DF8000003208DF801008A
:102100008DF8020001208DF80300684600F023F9E5
:1021100001940020ADF80800ADF80A00ADF80C00FD
:10212000ADF810000C20ADF80E0001A9764801F0C2
:102130004CFC012240F22551734801F0DEFC0121E4
:10214000714801F0CEFC06B010BD10B540F225512B
:102150006D4801F0B7FD00B36B4801F033FDC4B228
:10216000552C09D16A48008840F40040684908802D
:1021700001206849087010E065480088C0F30D0030
:1021800065490C5462480088401C61490880084633
:102190000088C72801DD0020088010BD70B5044606
:1021A0000D462946204601F009FD00BF802120464A
:1021B00001F072FD0028F9D070BD70B506460C46DE
:1021C000002500BF615D3046FFF7E8FF6D1C605DD4
:1021D0000028F7D100BF4021304601F05DFD002806
:1021E000F9D070BD2DE9F04105460C46260AE7B24C
:1021F0003146284601F0E2FC00BF8021284601F06C
:102200004BFD0028F9D03946284601F0D7FC00BF25
:102210008021284601F040FD0028F9D0BDE8F0817A
:102220002DE9F04107460D461646002405E0295DDC
:102230003846FFF7B3FF601CC4B2B442F7DB00BFFF
:102240004021384601F028FD0028F9D0BDE8F08192
:1022500010B530480078002854D02F480078012865
:102260000BD12D484078042807D1FFF740FD2B48BB
:102270000068C0432A49C1F8B40127480078012802
:102280000BD125484078052807D1FFF737FD2348B3
:102290000068C0432249C1F8B4011F4800780128F2
:1022A0000BD11D484078062807D1FFF712FD1B48C7
:1022B0000068C0431A49C1F8B401174800780128E2
:1022C0000BD115484078072807D1FFF709FD1348BF
:1022D0000068C0431249C1F8B4010F4800780128D2
:1022E0000BD10D484078012807D10E4908700B48E2
:1022F0000068C0430A49C1F8B401002004490880BD
:102300000449087010BD0000003801400008014079
:102310003C0000203A00002052030020B401224279
:10232000000022420400002006488047064800477B
:10233000FEE7FEE7FEE7FEE7FEE7FEE7FEE7FEE775
:10234000FEE7FEE773050008ED0000083149014390
:10235000314A1160704770B5002100230F22C47804
:1023600004B32D4C246804F4E064C4F5E064210A4D
:10237000C1F10403CA40447804FA03F1847814409C
:1023800021430901254C0678A155047804F01F0566
:102390000124AC4005786D11AD0005F1E025C5F8CC
:1023A000004109E0047804F01F050124AC401C4DF5
:1023B0000678761145F8264070BD1A4A0A40024355
:1023C000154B1B1F1A60704739B1134A121D126852
:1023D0000243114B1B1D1A6006E00F4A121D1268C2
:1023E00082430D4B1B1D1A607047042808D14FF023
:1023F000E021096941F004014FF0E022116107E09A
:102400004FF0E021096921F004014FF0E022116151
:10241000704700000000FA050CED00E000E400E069
:1024200080E100E080FFFF1F10B50446CC488442E5
:1024300008D10121042000F02DFB0021042000F030
:1024400029FB46E0C748844208D10121082000F05A
:1024500021FB0021082000F01DFB3AE0C248844225
:1024600008D10121102000F015FB0021102000F000
:1024700011FB2EE0BD48844208D10121202000F04C
:1024800009FB0021202000F005FB22E0B84884422F
:1024900008D10121402000F0FDFA0021402000F089
:1024A000F9FA16E0B348844208D10121802000F0F7
:1024B000F1FA0021802000F0EDFA0AE0AE488442F3
:1024C00007D10121801500F0E5FA0021A01500F0E8
:1024D000E1FA10BD10B50121084600F0DBFA002139
:1024E000012000F0D7FA10BD2DE9F0410246002589
:1024F0000026002000230024002791F803C00CF0E0
:102500000F0591F803C00CF0100CBCF1000F03D0C4
:1025100091F802C04CEA050591F800C0BCF1000F2B
:1025200031D0146800202BE04FF0010C0CFA00F3BE
:10253000B1F800C00CEA03069E4220D183004FF0A0
:102540000F0C0CFA03F7BC4305FA03FC4CEA040435
:1025500091F803C0BCF1280F06D14FF0010C0CFA22
:1025600000FCC2F814C00AE091F803C0BCF1480FA7
:1025700005D14FF0010C0CFA00FCC2F810C0401C51
:102580000828D1D31460B1F800C0BCF1FF0F34DDCE
:10259000546800202EE000F1080C4FF0010808FA02
:1025A0000CF3B1F800C00CEA03069E4221D183006F
:1025B0004FF00F0C0CFA03F7BC4305FA03FC4CEA8E
:1025C000040491F803C0BCF1280F05D100F1080CF8
:1025D00008FA0CF8C2F8148091F803C0BCF1480F57
:1025E00007D100F1080C4FF0010808FA0CF8C2F806
:1025F0001080401C0828CED35460BDE8F0814FF60F
:10260000FF710180022181700421C1707047024670
:10261000002093680B400BB1012000E000207047C0
:102620000146886880B2704702460020D3680B409C
:102630000BB1012000E0002070470146C86880B25D
:10264000704701617047416170470AB1016100E064
:1026500041617047C16070474FF480320A43826124
:102660008161826182698269704702460020434B22
:1026700018684FF68073184040EA021008433F4B39
:10268000186070473E49C8617047F0B50A4600239C
:1026900000240021002500F00046B6F1004F02D1D1
:1026A000364EF16901E0354E7168C0F3034583B2DF
:1026B00000F44016B6F5401F08D121F070612F4E8E
:1026C000766826F070662D4F7E6012E000F480166A
:1026D000B6F5801F06D1032606FA05F4A14341F0A2
:1026E000706106E0460D360103FA06F6B14341F08B
:1026F000706122B1460D360103FA06F6314300F04F
:102700000046B6F1004F02D11C4EF16101E01B4EB4
:102710007160F0BD30B500228B071C0F0F2303FA48
:1027200004F2164B08338C1053F824309343134CA7
:1027300008348D1044F8253023468C1053F824308B
:102740008C07240F00FA04F423430C4C08348D103A
:1027500044F8253030BD0A49DC310860704700007C
:1027600000080140000C014000100140001401402D
:1027700000180140001C0140002001400000014001
:1027800000002042DF48006840F00100DD49086099
:1027900008464068DC490840DA4948600846006855
:1027A000DA490840D74908600846006820F48020CC
:1027B00008600846406820F4FE0048604FF41F009F
:1027C00088607047CF49096821F48031CD4A116093
:1027D0001146096821F480211160B0F5803F03D0D3
:1027E000B0F5802F0ED106E0C649096841F480316A
:1027F000C44A116007E0C349096841F4A021C14AF5
:10280000116000E000BF00BF704710B50146002214
:10281000002300204A11012A02D1BA4C236806E0A5
:10282000022A02D1B74C236A01E0B64C636A01F078
:102830001F02012494401C400CB1012000E0002044
:1028400010BD38B5002000900024002500BF3120C5
:10285000FFF7DBFF05460098401C00900098B0F59C
:10286000A06F01D0002DF2D03120FFF7CEFF08B1CC
:10287000012400E00024204638BD01460020A14A82
:10288000106820F0F80040EAC10010607047A049CD
:1028900008607047024600209A4B586820F47C106C
:1028A00042EA01031843974B5860704798490866FD
:1028B000704701460020934A506820F00300084307
:1028C000506070478F48406800F00C007047014628
:1028D00000208C4A506820F0F00008435060704798
:1028E00001460020874A506820F4E06008435060A9
:1028F000704701460020834A506820F4605040EA47
:10290000C1005060704729B17E4A527A02437D4B24
:102910005A7204E07B4A527A82437A4B5A72704769
:102920007B49D8310860704701460020754A5068DD
:1029300020F440400843506070470021714A203223
:102940001170704A82F82010012802D004280AD1A0
:1029500004E001216B4A2032117005E00521694A2B
:102960002032117000E000BF00BF70476949086065
:1029700070476449096A0143624A116270476549B8
:1029800044390860704730B500210022002400233C
:102990005C4D6D6805F00C0121B1042905D00829B2
:1029A00023D105E05C4D056022E05B4D05601FE032
:1029B000544D6D6805F47012524D6D6805F4803405
:1029C000022505EB92421CB9544D554305600BE0BE
:1029D0004C4D6D6805F400351DB1504D55430560F3
:1029E00002E04D4D5543056002E04B4D056000BFD0
:1029F00000BF444D6D6805F0F0010909484D6B5C5E
:102A00000568DD4045603F4D6D6805F4E061090AE9
:102A1000434D6B5C4568DD4085603A4D6D6805F45B
:102A20006051C90A3E4D6B5C4568DD40C560354D5F
:102A30006D6805F44041890B3A4D6B5CC568B5FB88
:102A4000F3F5056130BD29B12E4A526902432D4B81
:102A50005A6104E02B4A526982432A4B5A617047FB
:102A600029B1284A92690243264B9A6104E0254A1B
:102A700092698243234B9A61704729B1214AD269F6
:102A80000243204BDA6104E01E4AD26982431D4BA7
:102A9000DA61704729B11B4AD2680243194BDA60E8
:102AA00004E0184AD2688243164BDA60704729B1B5
:102AB000144A12690243134B1A6104E0114A126965
:102AC0008243104B1A6170471249403908607047C1
:102AD0000F49C86470470B49C87170470948406A7C
:102AE00040F0807007494862704701460020054A5F
:102AF00092680A400AB1012000E0002070470149B5
:102B000088727047001002400000FFF8FFFFF6FED9
:102B1000000042428004424200127A0000093D0057
:102B20003E0000204E00002010B50446FE488442BE
:102B300008D10121C014FFF7ADFF0021E014FFF719
:102B4000A9FFC4E0B4F1804F08D101210846FFF786
:102B5000AEFF00210120FFF7AAFFB8E0F34884424E
:102B600008D101210220FFF7A2FF00210220FFF778
:102B70009EFFACE0EE48844208D101210420FFF71B
:102B800096FF00210420FFF792FFA0E0E94884426D
:102B900008D101210820FFF78AFF00210820FFF754
:102BA00086FF94E0E448844208D101211020FFF719
:102BB0007EFF00211020FFF77AFF88E0DF48844283
:102BC00008D101212020FFF772FF00212020FFF70C
:102BD0006EFF7CE0DA48844208D101214014FFF7FF
:102BE00059FF00216014FFF755FF70E0D54884427B
:102BF00009D10121C804FFF74DFF00214FF4002047
:102C0000FFF748FF63E0D048844209D1012108055D
:102C1000FFF740FF00214FF48010FFF73BFF56E025
:102C2000CA48844209D101214805FFF733FF00213A
:102C30004FF40010FFF72EFF49E0C548844208D149
:102C400001214020FFF733FF00214020FFF72FFF35
:102C50003DE0C048844208D101218020FFF727FFD2
:102C600000218020FFF723FF31E0BB48844208D1D8
:102C700001218015FFF71BFF0021A015FFF717FFAB
:102C800025E0B648844209D101210804FFF702FF7C
:102C900000214FF48030FFF7FDFE18E0B048844279
:102CA00009D101214804FFF7F5FE00214FF400305F
:102CB000FFF7F0FE0BE0AB48844208D10121880405
:102CC000FFF7E8FE00214FF48020FFF7E3FE10BD80
:102CD00000220288944B98420ED0994B98420BD018
:102CE000B0F1804F08D0914B984205D0904B98425C
:102CF00002D0904B984204D14FF68F731A404B8804
:102D00001A438D4B984207D08C4B984204D04FF613
:102D1000FF431A40CB881A4302808B8883850B8837
:102D20000385814B98420BD0854B984208D08B4B42
:102D3000984205D08A4B984202D08A4B984201D1E2
:102D40000B7A038601238382704770B5002400222A
:102D50000023058C4FF6FE7635400584028C83886F
:102D6000048B4FF68F752C40B51E2C400D882C43DC
:102D7000751E2A400D892A434D882A436A4DA84270
:102D80000BD06F4DA84208D0744DA84205D0744DA9
:102D9000A84202D0734DA84213D14FF6F7752A40CE
:102DA0004D892A434FF6FB752A408D882A434FF6FA
:102DB000FF652B404FF6FF552B408D892B43CD8966
:102DC0002B4383800483CD888586028470BD70B5D3
:102DD000002400220023058C4FF6EF763540058451
:102DE000028C8388048B48F6FF752C404FF6FF4514
:102DF0002C400D884FF6FF7606EA05252C434FF64A
:102E0000DF752A400D8906EA05152A434D8806EA32
:102E100005152A43444DA84202D0494DA8421DD170
:102E20004FF67F752A404D894FF6FF7606EA051565
:102E30002A434FF6BF752A408D8806EA05152A43B6
:102E40004FF6FF352B404FF2FF752B408D8906EA78
:102E500085052B43CD8906EA85052B4383800483B2
:102E6000CD880587028470BD70B500240022002340
:102E7000058C4FF6FF6635400584028C8388848B71
:102E80004FF68F752C404FF6FC752C400D882C4367
:102E90004FF6FF552A400D894FF6FF7606EA0525C5
:102EA0002A434D8806EA05252A431F4DA84202D031
:102EB000234DA8421DD14FF2FF752A404D894FF690
:102EC000FF7606EA05252A434FF6FF352A408D880E
:102ED00006EA05252A434EF6FF752B404DF6FF7591
:102EE0002B408D8906EA05152B43CD8906EA051589
:102EF0002B4383808483CD888587028470BD70B521
:102F0000002200230024058C4EF6FF763540058410
:102F1000038C8488828B48F6FF752A404FF6FF4564
:102F20002A400D8820E00000002C014000040040F1
:102F300000080040000C0040001000400014004059
:102F400000340140004C0140005001400054014059
:102F500000180040001C00400020004000400140DC
:102F600000440140004801404FF6FF7606EA05257F
:102F70002A434DF6FF752B400D8906EA05352B4394
:102F80004D8806EA05352B43FA4DA84202D0FA4D8A
:102F9000A84208D14BF6FF752C408D894FF6FF767D
:102FA00006EA85152C4384808283CD88A0F84050A2
:102FB000038470BD828B4FF2FF331A408283828B71
:102FC0004FF6FF7303EA01231A4382837047F0B57B
:102FD0000C461546002200210026078C4EF6FF7C89
:102FE00007EA0C070784828B018C4FF6FF7707EA0C
:102FF000043640F6FF473A404FF6FF7707EA0527C9
:103000003A434FF6FF7707EA03373A43D94FB842BE
:103010000ED0D94FB8420BD0B0F1804F08D0D74F67
:10302000B84205D0D64FB84202D0D64FB84206D1EA
:103030004DF6FF77394046F48057394305E047F6AF
:10304000FF57394044F48057394382830184F0BDEF
:10305000828B4FF6F3731A408283828B0A438283FA
:103060007047F0B50C461546002200210026078C5B
:103070004FF6FF6C07EA0C070784828B018C4FF632
:10308000FF7707EA04264FF60C773A404FF6FF77B2
:1030900007EA03172F433A43B64FB8420ED0B64F54
:1030A000B8420BD0B0F1804F08D0B44FB84205D031
:1030B000B34FB84202D0B34FB84206D14FF6FF57D4
:1030C000394046F48077394305E04FF2FF573940E5
:1030D00044F48077394382830184F0BD028B4FF240
:1030E000FF331A400283028B4FF6FF7303EA01237A
:1030F0001A4302837047F0B50C46154600220021A2
:103100000026078C4FF6EF7C07EA0C070784028B3A
:10311000018C4FF6FF7707EA041640F6FF473A4066
:103120004FF6FF7707EA03373A434FF6FF7707EA90
:1031300005273A438F4FB8420ED08F4FB8420BD07D
:10314000B0F1804F08D08D4FB84205D08C4FB842B7
:1031500002D08C4FB84206D14FF6DF77394046F0A7
:103160001007394305E04FF65F77394044F0100708
:10317000394302830184F0BD028B4FF6F3731A408A
:103180000283028B0A4302837047F0B50C46154652
:1031900000220021068C4FF6FE773E400684028B0B
:1031A000018C4FF60C7632407E1C06EA03162E4345
:1031B0003243704EB0420ED06F4EB0420BD0B0F1E1
:1031C000804F08D06D4EB04205D06D4EB04202D057
:1031D0006C4EB04206D14FF6FD76314044F0010608
:1031E000314305E04FF6F576314044F001063143B6
:1031F00002830184F0BD70B505460C465D488542EA
:103200000ED05D4885420BD0B5F1804F08D05B48A9
:10321000854205D05A48854202D05A48854200D19D
:1032200000E000BF208850B92389A2886188284621
:10323000FFF7ABFFE1882846FFF79EFF25E02088D7
:1032400004280AD12389A28861882846FFF753FF02
:10325000E1882846FFF742FF17E0208808280AD1B6
:103260002389A28861882846FFF7FBFEE18828466B
:10327000FFF7EEFE09E02389A28861882846FFF760
:10328000A6FEE1882846FFF795FE70BD2DE9F041C6
:1032900005460C4600260127608808B9022600E092
:1032A0000026A088012801D1022700E001272088FC
:1032B000A0B92389A28861882846FFF766FFE188C4
:1032C0002846FFF759FF23893A4631462846FFF73B
:1032D00012FFE1882846FFF701FF13E02389A28847
:1032E00061882846FFF707FFE1882846FFF7F6FECA
:1032F00023893A4631462846FFF747FFE1882846AA
:10330000FFF73AFFBDE8F0810A884B881A438B88A3
:103310001A43CB881A430B891A434B891A438B896A
:103320001A43A0F8442070474FF6FF7181800021B6
:103330000180C1804180017270470021018041807D
:103340008180C180018141818181C18170470021DB
:1033500001804180012181800021C180018170476D
:103360000021018041808180C18001814181818172
:1033700070470000002C0140003401400004004070
:1033800000080040000C004021B1028842F0010218
:10339000028004E002884FF6FE731A4002807047F4
:1033A00031B1B0F8442042F40042A0F8442005E0D6
:1033B000B0F84420C2F30E02A0F8442070471AB1BE
:1033C00083890B43838102E083898B438381704728
:1033D0008182704741EA0203A0F8483070471AB171
:1033E00083890B43838102E083898B438381704708
:1033F00001894FF6F8721140018170470A46002199
:1034000001894FF68F73194011430181704730B520
:1034100004460D4629462046FFF7F0FF208940F07C
:103420000700208130BD2DE9F04104460D461646C7
:103430001F46602D06D13B46012231462046FFF74C
:103440005AFE05E03B46012231462046FFF79DFE2D
:1034500029462046FFF7D2FF208940F0070020814F
:10346000BDE8F08130B50C4600210189C9B24FF6A4
:10347000FF7505EA0325154325432943018130BD26
:103480002DE9F04105460E4617469846002443466E
:103490003A4631462846FFF7E5FF2C894FF6F8708B
:1034A000044044F007044FF68F70044044F0700469
:1034B0002C81BDE8F081F0B504460D4616461F4646
:1034C0003B46324629462046FFF7CCFF208940F490
:1034D00080402081F0BD0185828270470A4600212C
:1034E00001884FF68F731940114301807047F0B582
:1034F0000C4615461E460021002200230189028B3E
:10350000038C4FF6F877394021434FF6FC473A4099
:1035100040F201173A434FF6DD773B404FF6FF7715
:1035200007EA06172F433B43018102830384F0BD62
:103530000A460021018B4FF68F7319401143018316
:1035400070470A460021018B48F6FF7319404FF679
:10355000FF7303EA02231943018370470A460021DF
:10356000818B4FF68F7319401143818370470A4650
:103570000021818B48F6FF7319404FF6FF7303EA71
:10358000022319438183704721B1028842F08002EF
:10359000028004E002884FF67F731A400280704771
:1035A00021B1828842F00402828004E082884FF6D2
:1035B000FB731A408280704721B1828842F0080272
:1035C000828004E082884FF6F7731A408280704749
:1035D00021B1828842F00102828004E082884FF6A5
:1035E000FE731A40828070470A460021018B4FF615
:1035F000F77319401143018370470A460021018B7C
:103600004FF2FF7319404FF6FF7303EA0223194389
:10361000018370470A460021818B4FF6F7731940EA
:103620001143818370470A460021818B4FF2FF735B
:1036300019404FF6FF7303EA022319438183704751
:103640000A460021018B4FF6FB7319401143018399
:1036500070470A460021018B4FF6FF3319404FF6A1
:10366000FF7303EA02231943018370470A460021CE
:10367000818B4FF6FB7319401143818370470A46D3
:103680000021818B4FF6FF3319404FF6FF7303EA99
:1036900002231943818370470A460021018B4FF6AC
:1036A0007F7319401143018370470A460021018B43
:1036B000C1F30E014FF6FF7303EA0223194301839E
:1036C00070470A460021818B4FF67F7319401143E2
:1036D000818370470A460021818BC1F30E014FF6AA
:1036E000FF7303EA02231943818370470A460021CE
:1036F000018C4FF6FD7319401143018470470A464F
:103700000021018C4FF6F773194011430184704773
:103710000A460021018C4FF6DF7319404FF6FF7304
:1037200003EA02131943018470470A460021018C01
:103730004FF67F7319404FF6FF7303EA02131943E4
:10374000018470470A460021018C4FF6FF5319404F
:103750004FF6FF7303EA02231943018470470A46B8
:103760000021018C4FF2FF7319404FF6FF7303EAFB
:1037700002231943018470470A460021018C4DF64B
:10378000FF7319404FF6FF7303EA023319430184B4
:10379000704730B5002301248C40A3B2048C9C43B5
:1037A0000484048C02FA01F5ADB22C43048430BDCC
:1037B00030B5002304248C40A3B2048C9C430484C1
:1037C000048C02FA01F5ADB22C43048430BD70B50F
:1037D0000346002000241846183001258D40ACB265
:1037E0001D8CA5431D8409B1082909D100EB610096
:1037F000056825F0700505600568154305600EE055
:103800000D1FC5F34E052844056825F4E045056005
:1038100005684FF6FF7606EA02263543056070BD5F
:1038200021B1028842F00202028004E002884FF6D1
:10383000FD731A400280704721B1028842F00402F1
:10384000028004E002884FF6FB731A400280704742
:1038500021B1828842F08002828004E082884FF6A3
:103860007F731A408280704702884FF6F7731A40C0
:10387000028002880A430280704782884FF68F7365
:103880001A40828082880A438280704702894FF6FC
:10389000F8731A40028102890A4302817047028943
:1038A0004FF67F731A40028102890A4302817047F2
:1038B0008184704781857047818670470187704792
:1038C00081877047A0F84010704702884FF6FF4389
:1038D0001A40028002880A43028070470146888E9F
:1038E00070470146088F70470146888F7047014630
:1038F000B1F8400070470146888C70470146088D3A
:10390000704702460020138A0B400BB1012000E0F3
:1039100000207047CA430282704730B5024600203B
:1039200000230024158A05EA0103958905EA0104AC
:1039300013B10CB1012000E0002030BDCA43028267
:103940007047000010B50446FB48844209D10121AC
:103950008803FFF79FF800214FF48040FFF79AF8A3
:1039600032E0F648844209D101214804FFF79FF86C
:1039700000214FF40030FFF79AF825E0F048844228
:1039800009D101218804FFF792F800214FF480202B
:10399000FFF78DF818E0EB48844209D10121C804F3
:1039A000FFF785F800214FF40020FFF780F80BE0C7
:1039B000E548844208D101210805FFF778F8002185
:1039C0004FF48010FFF773F810BD2DE9F04786B073
:1039D00005460E460024A24600BFA1460027B08936
:1039E00000B100BF2F462C8A4CF6FF700440F088CF
:1039F00004432C82AC894EF6F3100440B088318920
:103A00000843718908430443AC81AC8A4FF6FF40F8
:103A10000440B0890443AC8201A8FEF7B4FFC64855
:103A2000874202D1DDF810A001E0DDF80CA0A889E2
:103A300000F4004040B10AEBCA0000EB0A10316804
:103A40004900B0FBF1F807E00AEBCA0000EB0A10EE
:103A500031688900B0FBF1F86420B8FBF0F0040194
:103A60002009642101FB1089A88900F4004040B1BD
:103A7000322000EBC900B0FBF1F000F00700044376
:103A800008E0322000EB09106421B0FBF1F000F0F7
:103A90000F0004432C8106B0BDE8F0874FF41651A7
:103AA000016000218180C18001810C2141810021C0
:103AB0008181704710B502460020108A4FF2FF0343
:103AC00018400B884C8823438C882343CC8823439D
:103AD0001843108210BD0021018041808180C18087
:103AE000704721B1828942F40052828104E08289C8
:103AF0004DF6FF731A4082817047F0B503460024EB
:103B000000260025002040F66A17B94200D100BF08
:103B10001846C1F3421401F01F06012707FA06F503
:103B2000012C01D10C3004E0022C01D1103000E056
:103B300014301AB107682F43076002E00768AF43EB
:103B40000760F0BD1AB1838A0B43838202E0838A47
:103B50008B4383827047028A4FF6F0731A400282C9
:103B6000028A0A430282704782894FF2FF731A4029
:103B7000828182890A438281704721B1828942F021
:103B80000202828104E082894FF6FD731A4082812D
:103B90007047028A4FF6DF731A400282028A0A4394
:103BA0000282704721B1028A42F48042028204E01C
:103BB000028A4BF6FF731A4002827047C1F3080273
:103BC0008280704701468888C0F308007047818969
:103BD00041F0010181817047028BD2B20283028BD6
:103BE00042EA012202837047028B02F47F42028381
:103BF000028B0A430283704721B1828A42F020027D
:103C0000828204E0828A4FF6DF731A408282704714
:103C100021B1828A42F01002828204E0828A4FF649
:103C2000EF731A408282704721B1828A42F0080203
:103C3000828204E0828A4FF6F7731A4082827047CC
:103C400021B1828942F40042828103E08289C2F379
:103C50000E028281704721B1828A42F40062828220
:103C600004E0828A4FF2FF731A4082827047828A90
:103C70004FF6FB731A408282828A0A43828270471F
:103C800021B1828A42F00202828204E0828A4FF6E7
:103C9000FD731A408282704702460020B1F5007F12
:103CA00000D100BF13880B400BB1012000E00020C1
:103CB000704701F40072B2F5007F00D100BFCA4323
:103CC0000280704770B502460024002300250020C2
:103CD00040F66A16B14200D100BFC1F3421501F0AF
:103CE0001F03012606FA03F3012D02D19689334002
:103CF00006E0022D02D1168A334001E0968A334055
:103D00000C12012606FA04F41688344013B10CB1E3
:103D1000012000E0002070BD10B50022002340F615
:103D20006A14A14200D100BF0A1201249440A3B238
:103D3000DC43048010BD0000003801400044004016
:103D400000480040004C00400050004010B50120E9
:103D5000FEF7BAFE0020FEF7B7FE10BD2A49086044
:103D600070472949091F0860704727498431086056
:103D7000704701460020254A10884FF67F421040C8
:103D80000843224A10807047014600201F4A1088CD
:103D90004FF68072104008431C4A1080704708B5E7
:103DA00000220092194A2C3A0092009A0244009292
:103DB000009A116008BD08B5014600200090134824
:103DC0002C3800900098084400900098008808BDA6
:103DD0000D489C300068C0B270470C48083000881D
:103DE00040F0010009490831088070470648A030BA
:103DF0000068C0B2704705480830008840F00200F3
:103E0000024908310880704704860D422C6C00403E
:103E100010B501210807FEF74AFE00214FF080503F
:103E2000FEF745FE10BD2A4908627047284908611F
:103E3000704701460020274A106820F0E000084340
:103E4000106070472249A0310860704710B50246E3
:103E50000020204B186820F00300104318601E4B10
:103E60001B6843F004031C4C2360012901D130BFBF
:103E700000E020BF184B1B6823F00403164C23609E
:103E800010BD1448006840F004001249086008465C
:103E9000006840F0020008600F48006840F004002D
:103EA0000D49086000BF00BF30BF704701460020C9
:103EB000084A52680A400AB1012000E00020704719
:103EC0000449096841EA8001024A11607047000014
:103ED00000000E420070004010ED00E029B1504A91
:103EE000128802434E4B1A8004E04D4A12888243E6
:103EF0004B4B1A8070474A48001D008840F0100064
:103F00004749091D088070474548001D00884FF645
:103F1000EF7108404249091D088070470021404860
:103F20001C300188001F008841EA0040704700B53E
:103F30000246FFF7E0FF100C394918310880091DCF
:103F40000A80FFF7E1FF00BD00B50246FFF7D3FF8F
:103F5000C2F30340324908310880091D0A80FFF787
:103F6000D3FF00BD00B50246FFF7C5FF100C2C497A
:103F700020310880091D0A80FFF7C6FF00BD002020
:103F80002749103109880907080B25491431098888
:103F90000843704700BF2248001D008800F0200041
:103FA0000028F8D070471E48001D00884FF6F771B2
:103FB00008401B49091D088000BF1948001D0088E2
:103FC00000F008000028F8D0704701460020144A8D
:103FD000121D12880A400AB1012000E0002070473B
:103FE0000F49091D098881430D4A121D1180704730
:103FF000014600200A4A121D12880A40D0B2084A1F
:1040000012880A4012B108B1012000E00020704778
:104010000349091D09888143014A121D1180704717
:104020000028004010B50446FE48844209D1012111
:104030004806FEF73CFD00214FF00070FEF737FD0B
:1040400008E001218806FEF732FD00214FF0806074
:10405000FEF72DFD10BD30B5024600200023146888
:1040600024F002041460146844F00104146000E0B9
:104070005B1C546804F001041CB94FF6FF74A342A2
:10408000F6D1546804F001040CB900206CE08C797E
:10409000012C04D1146844F08004146003E0146817
:1040A00024F080041460CC79012C04D1146844F00D
:1040B0004004146003E0146824F0400414600C7A97
:1040C000012C04D1146844F02004146003E0146847
:1040D00024F0200414604C7A012C04D1146844F0BC
:1040E0001004146003E0146824F0100414608C7A47
:1040F000012C04D1146844F00804146003E014682F
:1041000024F008041460CC7A012C04D1146844F023
:104110000404146003E0146824F0040414608C7830
:10412000A407CD7844EA05640D7944EA05444D7945
:1041300044EA05540D886D1E2C43D461146824F0A4
:1041400001041460002300E05B1C546804F00104C7
:104150001CB14FF6FF74A342F6D1546804F0010479
:104160000CB1002000E0012030BD10B50021837AA1
:10417000012202FA03F1AC4A126842F00102AA4B92
:104180001A60A94A1C3212688A43A74B1C331A6072
:10419000027BCAB9A44A0C3212688A43A24B0C3380
:1041A0001A604288C38842EA03439F4A4032847AB5
:1041B00042F834300288838842EA03439A4A403204
:1041C000847A02EBC4025360027B012A19D1964A19
:1041D0000C3212680A43944B0C331A6042880388ED
:1041E00042EA0343904A4032847A42F83430C2882B
:1041F000838842EA03438C4A4032847A02EBC40249
:104200005360C27A3AB9884A121D12688A43864BB3
:104210001B1D1A6006E0844A121D12680A43824B75
:104220001B1D1A60028932B97F4A143212688A4310
:104230007D4B14331A600289012A06D17A4A14325E
:1042400012680A43784B14331A60427B012A06D164
:10425000754A1C3212680A43734B1C331A60724A47
:10426000126822F00102704B1A6010BD00218171AA
:10427000C171017241728172C1728170C17003217A
:10428000017102214171012101807047664909686D
:1042900041F00101644A11601146096843F60E724B
:1042A0009143614A11601146096841EA0021116099
:1042B0001146096821F001011160704721B10268BF
:1042C00042F48032026003E0026822F4803202602D
:1042D0007047E1B1026842F0800202604FF4C2729E
:1042E000125842F480734FF4C27213504FF4CA72E2
:1042F000125842F480734FF4CA7213504FF4D272C2
:10430000125842F480734FF4D27213501BE00268CB
:1043100022F0800202604FF4C272125822F48073BD
:104320004FF4C27213504FF4CA72125822F48073C1
:104330004FF4CA7213504FF4D272125822F48073A1
:104340004FF4D2721350704710B5024600209368A4
:1043500003F08063B3F1806F00D110E0936803F045
:104360000063B3F1006F01D1012008E0936803F00E
:104370008053B3F1805F01D1022000E004200428C3
:1043800079D002F5C07303EB00131B6803F001043E
:1043900002F5C07303EB00131C600B7A7BB94B7AF8
:1043A0000C8843EA445302F5C07404EB00142468FB
:1043B000234302F5C07404EB0014236010E00B7A71
:1043C0004C6843EAC4034C7A234302F5C07404EBFF
:1043D00000142468234302F5C07404EB0014236026
:1043E0008B7A03F00F038B7202F5C07303EB00139B
:1043F0005B6823F00F0402F5C07303EB00135C60ED
:1044000002F5C07303EB00135B688C7A234302F55B
:10441000C07404EB001463608B7B1C064B7B44EA86
:10442000034403E000640040006600400B7B44EA64
:104430000323CC7A234302F5C07404EB0014A36079
:104440008B7C1C064B7C44EA03440B7C44EA03232C
:10445000CC7B234302F5C07404EB0014E36002F547
:10446000C07303EB00131B6843F0010402F5C07333
:1044700003EB00131C6010BD10B50246002321B1F0
:10448000012907D002290FD109E09068F94C00EA10
:1044900004030BE09068F84C00EA040306E090681F
:1044A000F64C00EA040301E0002300BF00BFF44C17
:1044B000181BA34216D007DC83B16FF0806018444C
:1044C00070B1022818D111E0B0F5007F10D0ED4C8A
:1044D000204448B1B0F5003F0ED10BE002230DE0BF
:1044E00000230BE0002309E0002307E0012305E09F
:1044F000012303E0012301E0002300BF00BFD8B285
:1045000010BD21B1012907D002290FD109E082682D
:1045100042F0800282600AE0826842F400428260D7
:1045200005E0826842F40002826000E000BF00BF44
:10453000704710B500F5D87303EB01131B6803F047
:1045400004031372137A53B900F5D87303EB011304
:104550001B6840F2FF7404EA5353136009E000F54E
:10456000D87303EB01131B686FF0604404EAD303B4
:10457000536000F5D87303EB01131B6803F00203CB
:10458000537200F5D87303EB01135B6803F00F035C
:10459000937200F5D87303EB01135B681B0AD374A5
:1045A00000F5D87303EB01139B68D37200F5D87341
:1045B00003EB01139B681C0A147300F5D87303EB1B
:1045C00001139B681C0C547300F5D87303EB0113A3
:1045D0009B681B0E937300F5D87303EB0113DB6824
:1045E000D37300F5D87303EB0113DB681C0A147452
:1045F00000F5D87303EB0113DB681C0C547400F551
:10460000D87303EB0113DB681B0E937421B9C368E5
:1046100043F02003C36003E0036943F02003036118
:1046200010BD21B9C26842F02002C26003E00269F5
:1046300042F02002026170470246002019B9D36897
:1046400003F0030006E0012903D1136903F003001E
:1046500000E00020704710B502460B4600204FF6E0
:10466000FF71BBB9146824F0020444F00104146023
:1046700000E0491E546804F00304012C01D0002915
:10468000F7D1546804F00304012C01D0002032E07B
:10469000012030E0012B13D1146824F003041460CE
:1046A00000E0491E546804F003040CB10029F8D15D
:1046B000546804F003040CB100201CE001201AE04F
:1046C000022B17D1146824F0010444F00204146092
:1046D00000E0491E546804F00304022C01D00029B4
:1046E000F7D1546804F00304022C01D0002002E04A
:1046F000012000E0002010BD014600200A6822F0E1
:10470000010242F002020A604A6802F00302022A31
:1047100000D10120704701464FF6FF7200200B6860
:1047200023F002030B6000E0521E4B6803F002030B
:10473000022B01D1002AF7D14B6803F00203022BB0
:1047400000D001207047014600208A6902F0700005
:104750007047014600208A69100E7047014600200C
:104760008A69C2F3074070471AB143690B4343613A
:1047700002E043698B434361704710B50246002055
:1047800001F4700343B19369C1F3130423400BB1E7
:1047900001202DE000202BE001F0807343B153682D
:1047A000C1F3130423400BB1012021E000201FE0DE
:1047B00001F0006343B19368C1F3130423400BB1CC
:1047C000012015E0002013E001F0007343B1D3682D
:1047D000C1F3130423400BB1012009E0002007E0DE
:1047E0001369C1F3130423400BB1012000E0002042
:1047F00010BD0022244B994202D10023836111E0B5
:10480000C1F3130201F000730BB1C2600AE001F0C2
:1048100080630BB1026105E001F000630BB18260BF
:1048200000E0426070470246002002EA01030BB13B
:10483000012000E00020704770B504460D460026B8
:1048400060692840002872D0B5F5807F69D01DDCF2
:10485000082D42D006DC012D2DD0022D31D0042DA3
:104860007FD134E0102D3ED0202D42D0402D78D184
:1048700045E00000030000040003000800000310EE
:10488000000100080001FFF77000F030B5F5004F9F
:1048900061D009DCB5F5007F4AD0B5F5806F4DD009
:1048A000B5F5006F5DD150E0B5F5803F2DD0B5F581
:1048B000003F56D12FE0A0685549FFF7B4FF0646E8
:1048C00051E0E0680321FFF7AEFF06464BE0E068E9
:1048D0000821FFF7A8FF064645E0E0681021FFF732
:1048E000A2FF06463FE020690321FFF79CFF064632
:1048F00039E020690821FFF796FF064633E020697A
:104900001021FFF790FF06462DE060680821FFF7B1
:104910008AFF064627E060681021FFF784FF0646FD
:1049200021E0A0690121FFF77EFF06461BE01BE0A6
:10493000A0690221FFF777FF064614E0A069042171
:10494000FFF771FF06460EE00BE0A0697021FFF74C
:104950006AFF064607E060680421FFF764FF064629
:1049600001E0002600BF00E00026304670BDB1F532
:10497000007F3AD00FDC202928D006DC01291CD08A
:1049800004291DD0082940D11DE0402921D0B1F5CE
:10499000807F3AD126E0B1F5004F31D006DCB1F589
:1049A000806F25D0B1F5006F2FD124E0B1F5803FA5
:1049B00012D0B1F5003F28D111E0154A826025E000
:1049C0000822C26022E01022C2601FE008220261B9
:1049D0001CE01022026119E00822426016E0102259
:1049E000426013E00422426010E0042242600DE0C5
:1049F000042242600AE0002282610422426005E053
:104A0000002282610422426000E000BF00BF7047C4
:104A10000101010010B50446FA48844208D1012181
:104A20004015FEF737F800216015FEF733F817E060
:104A3000F548844208D101210015FEF72BF800212A
:104A40002015FEF727F80BE0F048844208D1012139
:104A5000C803FEF71FF800214FF40040FEF71AF8D4
:104A600010BD30B50246002000235068E84C2040BD
:104A70000D790C6844EA0524204350609068E54CA9
:104A80002040D1E902542C434D7944EA45042043A7
:104A90009060D06A20F470000C7C641EE4B2234362
:104AA00040EA0350D06230BD0021016001714171C4
:104AB0008160C16001210174704721B1826842F0B8
:104AC0000102826003E0826822F001028260704786
:104AD00021B1826842F48072826003E0826822F42D
:104AE00080728260704710B50023CBB21AB144685F
:104AF0001C43446002E044689C43446010BD8168EC
:104B000041F0080181607047014600208A6802F088
:104B100008020AB1012000E000207047816841F0DE
:104B2000040181607047014600208A6802F0040297
:104B30000AB1012000E00020704721B1826842F4F0
:104B4000A002826003E0826822F4A00282607047C3
:104B5000014600208A6802F480020AB1012000E0C8
:104B60000020704710B50A4600210023416821F457
:104B70006041531E41EA4331416010BD21B142689A
:104B800042F40062426003E0426822F40062426044
:104B90007047F0B504460D4600200021092D11DDB7
:104BA000E068A5F10A0606EB4607072606FA07F1B4
:104BB0008843A5F10A0606EB460603FA06F1084308
:104BC000E0600CE0206905EB4507072606FA07F1CF
:104BD000884305EB450603FA06F108432061072ADE
:104BE0000FDA606B561E06EB86071F2606FA07F1E2
:104BF0008843561E06EB860605FA06F108436063F5
:104C000022E00D2A0FDA206BD61F06EB86071F263F
:104C100006FA07F18843D61F06EB860605FA06F169
:104C20000843206310E0E06AA2F10D0606EB860758
:104C30001F2606FA07F18843A2F10D0606EB860649
:104C400005FA06F10843E062F0BD21B1826842F442
:104C50008012826003E0826822F4801282607047D2
:104C60000146C86C80B2704766484C300068704797
:104C700021B1426842F48062426003E0426822F45B
:104C800080624260704721B1426842F480524260C3
:104C900003E0426822F48052426070470A460021D5
:104CA000816821F4E04111438160704721B182683D
:104CB00042F40042826003E0826822F40042826093
:104CC000704721B1826842F40212826003E0826878
:104CD00022F4021282607047014600208A6802F4C2
:104CE00000120AB1012000E000207047F0B5044630
:104CF0001546002000220026092911DDE068A1F1F7
:104D00000A0707EB470C072707FA0CF29043A1F1BB
:104D10000A0707EB470703FA07F21043E0600CE0CD
:104D2000206901EB410C072707FA0CF2904301EBD5
:104D3000410703FA07F210432061A06BC0F301564C
:104D4000EF1C06F1010CA7EB0C0707EB870C1F27E4
:104D500007FA0CF29043EF1C06F1010CA7EB0C07CD
:104D600007EB870701FA07F21043A063F0BD10B507
:104D70000A4600210023816B21F44011531E41EAB1
:104D80000351816310BD08B5002300930090009B80
:104D90000B440093009B1A6008BD08B50246002032
:104DA0000090009201F12800009B184400900098A8
:104DB000006880B208BD0A4600214168164B1940C0
:104DC0001143416070474162826270470A46002188
:104DD000416821F01F0111434160704740B109490A
:104DE0000831096841F40001064A0832116007E001
:104DF00004490831096821F40001024A08321160AF
:104E0000704700000024014000280140003C0140A0
:104E1000FFFEF0FFFDF7F1FFFFFD3FFF0246002020
:104E200013680B400BB1012000E000207047CA431B
:104E30000260704770B502460020002300240B1268
:104E40005568CEB205EA060415681D4015B10CB1CF
:104E5000012000E0002070BD00220A12D34303604D
:104E6000704700002DE9F04F8BB00446200347F255
:104E7000305190FBF1F080B20890089800F0F9FEF4
:104E8000824600F052FF07460022204B00F007FE4A
:104E9000054600F08DFF814649461D4800F0E2FCC2
:104EA00005461C49484600F0E3FC0646294600F04A
:104EB00011FD0A9017490A9800F00CFD019000F0CE
:104EC00034FF054601F094FD07460022124B00F026
:104ED00058FE124A124BCDE9020100F039FD02469C
:104EE0000B46CDE9040100200E4900F04AFE4FF0C8
:104EF00066320D4BCDE9060100F0CBFD824600F095
:104F000057FF099009980BB0BDE8F08F0000483FAB
:104F1000000040400000204100DCAE4083DBB5DCF7
:104F2000E1796B3F0000F03F661271402DE9F047D8
:104F3000DA49098801EB8101880000F09FFE0646EE
:104F4000D74AD84B00F0ABFD04460022D64B00F008
:104F5000A6FD804600F0D0FED44908630846008EC6
:104F6000000AD34981F82000D04890F8300081F839
:104F70002100084690F82000CE498873CC4890F86C
:104F80002100C873CA4890F82000CB498870C848EF
:104F900090F82100C870BDE8F087C4490968C74A85
:104FA0001160C2490968C64A1160012021E0002849
:104FB00001DB022803DD062819DB082817DCBB49C2
:104FC00051F82010BD4A1268914204D9B74951F8EE
:104FD0002010BA4A1160B54951F82010B84A126839
:104FE000914204D2B14951F82010B54A1160411CD8
:104FF000C8B20C28DBDBB1490988090AAC4A82F83F
:105000002910AE49097882F82A10AD490988090AA1
:1050100082F82B10AA49097882F82C107047704743
:10502000002019E0A74931F810100A2291FBF2F193
:105030009E4A42F82010114631F82010C1F3072291
:10504000811C01449A4B5A54984911F82020C11CE4
:1050500001445A54411CC8B20C28E3DB704770B5B8
:1050600000249949088800F004FE98490860084621
:105070000168974800F0F6FB0546964900F02AFCC7
:1050800092490860944800680A2815D10CE08F48BE
:10509000006800F01DFE06B2304600F09FF905469C
:1050A00000F0DEFD894908608B4801680068401EF9
:1050B000894A10600029EAD18448006880F00045E0
:1050C0008649284600F006FC854908607F4800684C
:1050D00000F0E5FD051E01DB284600E068420446BD
:1050E000200A734981F8240081F82540084690F889
:1050F0002400714988716E4890F82500C87170BD10
:1051000001466E4A12686E4B1B68D21A8A4201D958
:10511000012000E0002070472DE9F04105460026FF
:1051200000272846FFF7ECFF074600241DE0002C6F
:1051300001DB022C03DD062C15DB082C13DC5B489D
:1051400050F824005D490968884202D1601C654915
:105150000880564850F8240059490968884202D10D
:10516000601C61490880601CC4B20C2CDFDB5D4808
:105170000078401E012181408EB21FB13046FCF7FD
:10518000CEF802E00020FCF7CAF8BDE8F08170B567
:10519000ADF5347D0025FBF71FFCFCF7F1F8FCF7BB
:1051A000EFF8FCF7EDF85AAA01210020FBF7CFFC3D
:1051B000FCF70BF9FCF709F9FCF707F96A4601213E
:1051C0000020FBF7C4FC012419E05AA931F814109F
:1051D0003DF81420881A002801DB014600E0414216
:1051E0000E46B6F57A6F03DD0120A040284385B254
:1051F0001DB129463DA000F029FF601CC4B20C2C53
:10520000E3DB28460DF5347D70BD10B52E49488886
:10521000FFF728FE414908602B498888FFF722FEE6
:105220003E49486010BD2DE9F0438FB03B494868C6
:1052300000F07BFD04460D463849086800F075FD16
:1052400006460F462648006800F06FFD80468946F6
:105250003348CDE90A67CDE90C4500783149097832
:10526000314A1278314B1B78CDE90489CDE90632F9
:10527000CDE908100D48006A0C49C9690B4A9269CA
:10528000CDE900210290094883684268016828A09E
:1052900000F0DCFE0FB0BDE8F08300001C0400202D
:1052A0002D431CEBE2361A3F00408F40EC060020F5
:1052B000540000207A020020060300201C03002076
:1052C0002003002084050020D004002024030020B7
:1052D00000B4CD4600002F43380300200000C84230
:1052E000280300202C0300202E030020C7EBBCEC79
:1052F000B2E9B5E7B3D8C1ACBDD3CFDFA3ACD3D04F
:10530000B6CFCFDFC7E9BFF6A3ACB9CAD5CFC2EBE2
:10531000A3BA30782578200D0A0000003003002061
:1053200002000020010000200700002006000020ED
:1053300025752C25752C25752C25752C25752C256A
:10534000752C25662C25752C25752C25752C257519
:105350002C25662C25660A00FEB506460527012485
:1053600008E0D84830F81410601ED64A22F8101011
:10537000601CC4B2052CF4DBD2480681142201461D
:10538000684600F0F9F9002423E0601CC5B21CE077
:105390003DF914003DF91510884214DD3DF9140063
:1053A0003DF9151048402DF814003DF915003DF960
:1053B000141048402DF815003DF914003DF9151062
:1053C00048402DF81400681CC5B2052DE0DB601CB8
:1053D000C4B2042CD9DBBDF90600FEBDF0B586B021
:1053E000044600250026002203E02DF81240501C40
:1053F000C2B20C2AF9DB00231AE0002112E03DF9C9
:105400001170481C3DF91000874209DD3DF911601B
:10541000481C3DF810002DF81100481C2DF81060B4
:10542000481CC1B2C3F10C008842E8DC581CC3B26E
:105430000B2BE2DB012204E03DF912000544501C75
:10544000C2B20B2AF8DB0A2095FBF0F000B206B0DE
:10545000F0BDF0B50146002300244FF6FF754888E3
:105460000F884E6826F817000888401C08800888B6
:105470000E7AB04201D100200880002216E0486870
:1054800030F81200A04203DD486830F8124007E00F
:10549000486830F81200A84202DA486830F8125022
:1054A000486830F812000344501CC2B2087A904297
:1054B000E5DC181B461B087A801EB6FBF0F080B2B4
:1054C000F0BD30B50146002348880D884C6824F8AB
:1054D00015000888401C088008880C7AA04201D179
:1054E00000200880002205E0486830F812000344DC
:1054F000501CC2B2087A9042F6DC087AB3FBF0F096
:1055000080B230BD2DE9FC5F81460D4616461F4630
:10551000DDE90CAB00200190AAF101040BE0601E54
:1055200055F8200045F82400601E56F8200046F883
:105530002400601E04B2002CF1DCC5F8009039682C
:10554000286800F095F98046012417E057F82410E8
:1055500055F8240000F08CF94146009000F030F935
:1055600080465BF8241056F8240000F081F9009082
:10557000019900F025F90190601C04B25445E5DB67
:105580004046019900F06EF930603068BDE8FC9F3C
:105590002DE9F0410446D4E9010100F069F906461D
:1055A0004FF07E50A16800F05DF90746216800F0D9
:1055B0005FF90546314600F003F9BDE8F0812DE9B9
:1055C000F05F04460D46D4E9001000F04BF9824626
:1055D0003D48A16800F04CF9834659464FF07E5093
:1055E00000F078F98146294600F0EAF88046414605
:1055F000284600F06FF90746514600F039F9064693
:10560000216800F0DDF8BDE8F09F2DE9F0438BB094
:1056100004460D469046042C01DA0B2D03DB0020D6
:105620000BB0BDE8F0832948005D401CC0B227499B
:105630000855A84201DB0020085504EB440000EBAC
:10564000C400234901EB80002049095D40F8218016
:1056500000260CE004EB440000EBC4001C4901EB05
:10566000800050F826004DF82600701CC6B2AE42ED
:10567000F0DB00261BE0002713E07A1C5DF8221007
:105680005DF8270000F0B0FB09D25DF82790781C88
:105690005DF820004DF82700781C4DF82090781C0C
:1056A000C7B2681E801BB842E7DC701CC6B2681E19
:1056B000B042E0DC294605EBD17040105DF82000D7
:1056C000AEE70000A4080020DA0FC9403C03002028
:1056D000E40700202DE9F05F0546002092469B4636
:1056E00088460646814640241BE0284641464746F8
:1056F000224600F099FB53465A46C01A914110D3F6
:1057000011461846224600F016F82D1A67EB0108DC
:105710004F4622460120002100F00DF817EB00094A
:105720004E41201EA4F10104DFDC484631462A46E2
:105730004346BDE8F09F202A04DB203A00FA02F13C
:10574000002070479140C2F1200320FA03F319436F
:1057500090407047202A06DBCB17203A41FA02F02E
:1057600043EAE07306E041FA02F3D040C2F12002BE
:10577000914008431946704740EA01039B0703D054
:1057800009E008C9121F08C0042AFAD203E011F880
:10579000013B00F8013B521EF9D27047D2B201E042
:1057A00000F8012B491EFBD270470022F6E710B526
:1057B00013460A4604461946FFF7F0FF204610BD7F
:1057C000F0B480EA0102D40F4200B2EB410F02D2E2
:1057D0000246084611464A0042D0C30DDDB2C1F36D
:1057E000C752AD1A202D35DAC1F3160141F400027B
:1057F00004B15242C5F1200602FA06F12A411044D2
:10580000B3EBD05F23D0C4B1012DA0EBC35009DCB2
:10581000F0BC4FF0004202EAC352DBB200F50000D8
:1058200000F01BBB400000F1807000EBC350A0F102
:10583000807040EAD170490009E0490841EAC0712E
:10584000A0EBC35000F50000400800EBC350F0BCD3
:1058500000F0FABA6142012202EB4101001BF6E7B7
:10586000F0BC704781F00041AAE780F00040A7E754
:1058700080EA010210B502F00043400022D04A0045
:105880001FD0010E01EB1261C0F35600C2F35602A5
:1058900040F4000042F40002A0FB022000047F3923
:1058A000140400D0401C50EA124001D44000491EAC
:1058B000C2B20C0604EBD010401C4008802A02D073
:1058C00003E0002010BD20F00100002900DA0020D4
:1058D000184310BD30B480EA010202F0004530F0F8
:1058E000004221F0004013D090B1C30DD40DC2F39B
:1058F0001601C0F31600E41A41F4000140F400025E
:105900007D34914201D3641C00E04900002C02DA8E
:1059100030BC002070474FF400000023914201D3B7
:10592000891A034340084FEA4101F7D151B191422E
:1059300002D14FF0004105E002D24FF0010101E039
:105940006FF0010103EBC450284430BC00F07CBA76
:105950002DE9FE4F804681EA0300C00F0C460090FF
:1059600021F0004123F00045B8EB0200A94105D227
:105970004046214690461C460B46024623F0004016
:10598000104347D0270DC7F30A00C3F30A51029012
:10599000401A019040286BDAC3F3130040F4801BD7
:1059A0000098924620B10023D2EB030A63EB0B0B65
:1059B00001985946C0F140025046FFF7BCFE06462A
:1059C0000D4650465946019AFFF7C4FE10EB0800F9
:1059D0006141002487EA115284EAE7731A4340D0F8
:1059E000009A62B3019A012A4FEA075215DC001BA4
:1059F00061EB02014FF0004202EA0752CDE900429A
:105A0000001C41F5801132462B4600F063FA03B0CA
:105A1000BDE8F08F40462146F9E7001B61EB02012B
:105A2000001C41F5801300185B412018A2F50017F7
:105A300047EB030140EAD570B6196D4111E06D08DE
:105A40004FEA360645EAC0754FEA0752001B61EB84
:105A50000201001C41F5801149084FEA300000198D
:105A6000514132462B4603B0BDE8F04F00F023BA57
:105A70000098012240000023D0EB020263EBE073A8
:105A8000009821464FEAE074B8EB000061EB040196
:105A9000E9E783F000435BE781F0004158E72DE937
:105AA000FE4F81EA030404F0004421F00041009419
:105AB0004FF0000B23F0004350EA01045ED052EA9D
:105AC00003045BD0C3F30A54C1F30A552C44A4F277
:105AD000F3340194A0FB0254C1F3130141F480118B
