:020000040800F2
:100000000011002095020008E13A000809340008B8
:10001000DD3A0008D5230008454000080000000034
:10002000000000000000000000000000F13C00089B
:10003000D923000800000000113B0008253D0008FE
:10004000AF020008AF020008AF020008AF020008CC
:10005000AF020008AF020008AF020008AF020008BC
:10006000AF020008AF020008AF020008AF020008AC
:10007000AF020008AF020008AF020008AF0200089C
:10008000AF020008AF020008AF020008AF0200088C
:10009000AF020008AF020008AF020008AF0200087C
:1000A000AF020008AF020008AF020008AF0200086C
:1000B000AF020008AF020008AF020008AF0200085C
:1000C000AF020008AF020008AF020008AF0200084C
:1000D000AF020008AF020008713F0008AF0200083D
:1000E000AF020008AF020008AF020008AF0200082C
:1000F000AF020008AF020008AF020008AF0200081C
:10010000AF020008AF020008AF020008AF0200080B
:10011000AF020008AF020008AF020008AF020008FB
:10012000AF020008AF020008AF020008AF020008EB
:10013000AF020008AF020008AF020008AF020008DB
:10014000AF020008AF020008AF020008AF020008CB
:10015000AF020008AF020008AF020008AF020008BB
:10016000AF020008AF020008AF020008AF020008AB
:10017000AF020008AF020008AF0200080000000054
:10018000AF020008AF02000800F002F800F072F8B9
:100190000AA090E8000C82448344AAF10107DA45E2
:1001A00001D100F067F8AFF2090EBAE80F0013F0C2
:1001B000010F18BFFB1A43F001031847408D0000E0
:1001C000608D0000103A24BF78C878C1FAD8520771
:1001D00024BF30C830C144BF04680C6070470000C1
:1001E0000023002400250026103A28BF78C1FBD840
:1001F000520728BF30C148BF0B607047662906F020
:100200004581652906F04281672906F03F81612911
:1002100006F03E81692900F06B81642900F0688155
:10022000752900F065816F2900F01E82782900F0A1
:100230005C820368DB0928BF41F08001632901F07B
:100240004680E32901F05980002070471FB506F071
:1002500008F901F04BFB04000020002105F088FEA6
:10026000401C60600020002105F06CFEE0601FBDB6
:1002700010B510BD01F014FE1146FFF7E7FF04F0C2
:1002800047FA02F05DF803B4FFF7F2FF03BC03F096
:1002900015FF00000948804709480047FEE7FEE7D0
:1002A000FEE7FEE7FEE7FEE7FEE7FEE7FEE7FEE726
:1002B00004480549054A064B70470000D53D000833
:1002C00089010008000B002000110020000D002013
:1002D000000D0020704753EA020C00F069802DE900
:1002E000F04B4FF00006002B1FBFB3FA83F503FA63
:1002F00005F424FA05F65E4012BF1643B2FA82F501
:1003000002FA05F4C5F120051EBF22FA05FC44EAF5
:100310000C04203556EA044C4FEA144418BF641C00
:100320004FF000084FF00009904271EB030C39D3F5
:10033000002919BFB1FA81F701FA07F6B0FA80F780
:1003400000FA07F6C7F120071EBF20FA07FC46EAAD
:100350000C062037B6FBF4FCA7EB0507103F07F0AF
:100360001F0BCBF120062CFA06F60CFA0BFB44BF50
:10037000B3460026202FA4BF5E464FF0000B5BEA79
:10038000060C08BF4FF0010B19EB0B0948EB0608F0
:10039000ABFB027C06FB02CC0BFB03CCC01B71EB5E
:1003A0000C01C1E70B46024641464846BDE8F08BCA
:1003B00013B5084318BF4FF0FF300146AFF300807C
:1003C000BDE81C40704700000FB41CB5084B06AADE
:1003D0007B4469460090059800F04FFF04460020DA
:1003E000694600F05DFF20461CBC5DF814FB000070
:1003F000CD0E00000FB47CB50C0009AA009001D00E
:100400002044401E084B7B4469460190089800F048
:1004100034FF05461CB10020694600F041FF284624
:100420007CBC5DF814FB0000A10E000070B5044612
:1004300085690068C10601D5302600E02026C00786
:1004400007D070BDD4E9012130469047206A401C96
:1004500020626D1EF6D570BD70B5044685690078C2
:10046000C00707D170BDD4E9012120209047206A40
:10047000401C20626D1EF6D570BD09684A0501D585
:1004800040B27047C905FCD500B2704709684A05FB
:1004900001D5C0B27047C905FCD580B2704770B5B0
:1004A0000C460546012A05D02878800600D5EA6961
:1004B000002302E0012305E05B1C934202D2E05CD2
:1004C0000028F9D1A869E618C01AA861286A18445A
:1004D00028622846FFF7AAFF04E0D5E9012114F8B5
:1004E000010B9047B442F8D32846FFF7B5FF70BD23
:1004F0002DE9F0410646002410687529314616A5FD
:1005000010D0FFF7BAFF002802DA404213A507E037
:1005100031688A0701D512A502E0490704D511A563
:10052000012401E0FFF7B2FF00210A2206F12407AF
:1005300009E0B0FBF2FCB0FBF2F302FB1C00303030
:1005400078541846491C0028F3D123462A463046E1
:10055000BDE8F04100F0A6BA000000002D00000048
:100560002B000000200000002DE9FF5F15468A46A1
:100570000446DFF8AC80F8440027D8E900103E4676
:10058000CDE9001010E03AF816106A4602A801F012
:1005900081F9411C07D02178890603D5E269391811
:1005A00091420DD80744761C2078800602D5E06978
:1005B000B84205DDAE42E6DB3AF816000028E2D18B
:1005C000A069C01BA0612046FFF730FFD8E90010EA
:1005D000CDE90010002017E03AF818106A4602A88A
:1005E00001F058F9B0F1FF3F81460BD000250DF125
:1005F000080B05E0D4E901211BF8050090476D1CAC
:100600004D45F7D308F10100B0428046E4DB206A93
:10061000384420622046FFF71FFFBDE8FF9F00001F
:100620001660000030B4002100F1240408E002F05C
:100630000705D208303542EA4372DB086554491C8D
:1006400052EA0305F3D10468002310A2250708D558
:1006500004F020040C4304D0C46901230CA2641EDE
:10066000C46130BC00F01EBA10B5044621461068C3
:10067000FFF70CFF02462046BDE810400023D1E7FB
:10068000D21D22F00701D1E90023CBE700000000D2
:1006900030000000F0B40D460188090502D5214C58
:1006A0007C4402E01F4C7C440E34002100F12406FF
:1006B00008E002F00F071209E75D42EA03721B0926
:1006C0007754491C52EA0307F3D10278002312073A
:1006D00004D5702D06D009B1022311342246F0BC96
:1006E00000F0E0B901231034F8E770B504460D4678
:1006F00021461068FFF7CAFE024629462046BDE89B
:1007000070400023C6E7D21D22F00703D3E900237F
:10071000C0E70368126843F0200303600823C36145
:100720000023B7E7F45E00002DE9F05F8946044638
:100730004FF0000ADFF874B1FB44C0F820A0204657
:10074000E1688847002874D0252806D0D4E9012123
:100750009047206A401C2062F1E700265F46204651
:10076000E16888472028054607DB312D05D2781936
:1007700010F8200C08B10643F1E7B00701D526F0C8
:100780000406C4F81CA00027C4F818A02A2D09D01C
:10079000284605F088FB38B304EB8708303DC8F8DD
:1007A000185019E059F8041B204604EB87029161A8
:1007B000E1688847012F054618D1E069002820DA52
:1007C00026F020061DE0D8F8180000EB800005EBAD
:1007D00040003038C8F818002046E16888470546D0
:1007E00005F061FB0028EED1012F0AD02E2D08D193
:1007F0002046E16888477F1C0546022F46F0200608
:10080000C4DBA069002803DA404246F00106A0617B
:10081000F00701D026F010066C2D0BD0682D09D002
:100820004C2D39D06A2D35D0742D35D07A2D33D05A
:1008300016E038E0E1682F4620468847B842054672
:1008400009D16C2F26D04FF48060E1680643204622
:100850008847054604E06C2F1AD04FF48070064399
:100860000DB3A5F14100192802D8203546F40066E1
:100870004A462946204626604E46FFF7BFFC80B117
:1008800001280BD0F61D26F0070000F1080956E7F5
:100890004020E4E78020D8E70020D6E706F10409ED
:1008A0004DE7284652E7206ABDE8F09F845E0000CD
:1008B0000FB400B58DB010A9099000910B904FF0C6
:1008C000FF300A9000200C900648784406900648B5
:1008D00078446A4607900F9909A800F0ABFF0DB065
:1008E0005DF814FB870F00009F0F00002DE9FF5FEC
:1008F0001D464FF0FF3B91464FF000085F46D5E99B
:100900000146A96901987F1C8847296A8246884761
:100910000028F6D1BAF1FF3F0CD0002E24F4C064B9
:1009200019DD600614D5BAF12B0F09D0BAF12D0FDD
:100930000ED103E0584604B0BDE8F09F44F4806453
:10094000A96901987F1C8847761E8246002E02DD29
:10095000BAF1300F03D0B9F1000F26D032E0A96907
:10096000761E01987F1C44F400748847002E82464E
:1009700005DDBAF1780F06D0BAF1580F03D0B9F1FE
:10098000000F10D01EE0B9F1000F02D0B9F1100F26
:1009900018D1A969761E01987F1C24F40074884739
:1009A0008246102002E0082000E00A20814609E08B
:1009B000A96908FB0908761E01987F1C44F400749D
:1009C00088478246002E05DD4946504600F0A1FCCE
:1009D0000028EDDAE96901988847A00502D46FF094
:1009E0000100A8E7E00725D1600613D5600502D510
:1009F000C8F1000000E0404629680A1D2A60096825
:100A0000220501D5087015E0220701D5088011E004
:100A100008600FE02868011D29600068210502D5E3
:100A200080F8008006E0210702D5A0F8008001E0F0
:100A3000C0F8008038467EE74FF0000200B513464C
:100A400094469646203922BFA0E80C50A0E80C50EE
:100A5000B1F12001BFF4F7AF090728BFA0E80C509F
:100A600048BF0CC05DF804EB890028BF40F8042B98
:100A700008BF704748BF20F8022B11F0804F18BF05
:100A800000F8012B7047704770477047704710B5EA
:100A900000F030FF006810BD10B5044600F02AFFDA
:100AA000046010BD2DE9F0470D4699469246044674
:100AB00000F124080168880604D5E06921F01001DE
:100AC000216000E00120A84201DD471B00E0002773
:100AD000A1697A1902EB0900081AA0612078C00602
:100AE00002D42046FFF7A2FC002608E0D4E9012149
:100AF0001AF806009047206A401C761C20624E457A
:100B0000F4DB2078C0060AD52046FFF78FFC06E00C
:100B1000D4E9012130209047206A401C2062381E11
:100B2000A7F10107F4DC07E0D4E9012118F805007A
:100B30009047206A401C2062281EA5F10105F3DCC5
:100B40002046FFF789FC2078000602D50220BDE888
:100B5000F0870120FBE72DE9FF4F0C461E464FF0C2
:100B6000FF378BB0D2E90001DDF860800A908A4639
:100B7000C1F30A5505B93D46002108464FF0000073
:100B8000BAF1000F00F4400005DA00EB80004FF4EA
:100B9000400101EA50004FEA9059B9F1010F00DD20
:100BA000B9460A9850EA4A000ED044F61050A5F211
:100BB000FF3545432F14B8F1000F1ED07542291E92
:100BC0001EDDC9F100021CE0B8F1010F4FF000007A
:100BD00001D0302103E0F24305E02154401CB04233
:100BE000FBDB30460022002121540B99C1F808801C
:100BF000C1E900200FB0BDE8F08FBD1B6D1CDEE722
:100C00004A4600DA694206A801F0D4F806AB93E838
:100C1000070003AB83E8070050460A9903F078FF0A
:100C20008DE80700A0F500501F3800900398002DB4
:100C30000ADD42F21F014A460844002303A903903B
:100C4000684604F023FA09E0A0F500504A461F3830
:100C5000002303A90390684604F042FA8DE80700D8
:100C60000004000C03D04FF0FF30410800E01046B4
:100C7000B8F1000F03D00022009215461EE0751E49
:100C800005D400F04EFE303262556D1EF9D5B346E4
:100C90000122084302D000227F1C04E02078302883
:100CA00001D100227F1E002A099784D01DE0112D5A
:100CB00007DA00F036FE303262556D1C50EA010250
:100CC000F5D1084302D00098C8B10EE00021681E9B
:100CD00005E0235C625C63542254401E491C81423F
:100CE000F7DBAB46A81B401E0990002004F80B0060
:100CF0000B98099AC0F80880C0E9002B7AE7112602
:100D00004FF0000857E72DE9F04F88460446D21D02
:100D100022F0070191B0D1E90001CDE90A0104F008
:100D20002BFB02460B98C00F01D02D2007E0206856
:100D3000810701D52B2002E0202101EAC000032A0F
:100D4000099001D0072A05DB03464146204600F002
:100D500037FE0BE12078800601D5E06900E006202F
:100D6000B8F1650F814606D0B8F1660F18D0B8F11A
:100D7000670F70D131E00020B9F1110F009001DB55
:100D8000112301E009F101030AAA01A90CA8FFF748
:100D9000E2FEDDE90C70002609F10105834647E01B
:100DA00001204B4600904FF000470AAA01A90CA869
:100DB000FFF7D1FEDDE90DB00C995D46002610B9B4
:100DC00009F101000D18B9EB050003D4C0F1FF369D
:100DD00009F10105A5EB09002BE0B9F1010F01DADA
:100DE0004FF001090020B9F1110F0090484601DDD4
:100DF000112300E003460AAA01A90CA8FFF7ABFEE5
:100E0000DDE90C704D4600268346207800070AD4A1
:100E1000AB4500DA5D4601A8012D04DD411911F84A
:100E2000011C302907D04F4502DA17F1040F04DA0C
:100E3000012082460FE06D1EEEE7002F02DCED1B65
:100E40003E4403E0781CA84200DD7D1CB81B00F185
:100E5000010A4FF000472078000703D4AA4501DBC0
:100E60004FF0FF3A0021B7F1004F0DF143088DF824
:100E7000431024D002202B23002F01DA7F422D23A0
:100E80000A21021EA0F1010000DC5FB197FBF1FC1A
:100E900097FBF1F201FB1C7C17460CF1300C08F8B3
:100EA00001CDEEE7A8F1010003702188090501D505
:100EB000452100E06521A0F1010800F8011C099816
:100EC0000FA9A1EB0807FF1D00B10120411901EB9B
:100ED000EA70A1693844081A401EA0612078C00653
:100EE00002D42046FFF7A2FA099828B1D4E90121DB
:100EF0009047206A401C20622078C00622D52046F8
:100F0000FFF794FA1EE0002E04DBB34502DD01A8D2
:100F1000805D00E03020D4E901219047206A401C28
:100F20002062761CAAF101005FEA000A0AD100F0F3
:100F3000DDFCC0680168405CD4E901219047206A6B
:100F4000401C2062281EA5F10105DCDC07E0D4E985
:100F5000012118F8010B9047206A401C2062381EBE
:100F6000A7F10107F3DC2046FFF776FA032011B062
:100F700041E600002DE9F04F04460D46D21D22F057
:100F8000070089B0D0E900974846394604F0F4F9E3
:100F90000246F80F01D02D2307E02068810701D514
:100FA0002B2302E0202101EAC0038DF820300BB191
:100FB000012000E00020032A824601D0072A04DB3A
:100FC0002946204600F0FCFC3FE12078800601D451
:100FD0000D2500E0E569C7F30A560D2D49DA002119
:100FE0004FEA175B08464FF00000002F00F4400066
:100FF00007DA00EB80004FF4400100EBD07001EA0B
:1010000060008115012901DD4FF0FF3100224FEA18
:10101000850CBCF1180F06D31346ACF118004FF045
:101020008052C24003E04FF4801323FA0CF30CF11A
:101030000C0CBCF1200F04D3ACF1200C09FA0CF01D
:1010400001E007FA0CF000294FF0004801DD18B963
:101050000FE00ED140450CD319EB02095F4121B9D5
:10106000404502D19F4329EA0209BBEB175F00D03C
:10107000761C2088000502D57B48784402E07A4837
:101080007844193808AA302302F80A30037C0AF1A0
:101090000101002E0AF1020A53546A4602DC4FF0A5
:1010A000300101E04FF031014FF001088DF80010E0
:1010B00002D0A6F2FF3603E059EA470100D06B4E9A
:1010C000002D02DC2178090704D54FF002082E21FB
:1010D0008DF80110C44600210BE0C7F303433F0124
:1010E000C35C491C6D1E02F80830052908F101088F
:1010F00001DA002DF1DC00210CE000EB1973491C32
:101100001B786D1E082902F808304FEA091908F10A
:10111000010801DA002DF0DC21688B0602D516E00B
:10112000A8F10108E04505DD02EB080313F8013CD6
:10113000302BF5D0B8F1000F09DD02EB080313F8EE
:10114000013C2E2B03D1090701D4A8F10108002D81
:1011500005DD3E2102F808106D1E08F10108407CF3
:10116000002E02F8080008F1010804DA2D2076426A
:1011700002F8080002E02B2002F808000A214FF4D0
:101180007A70864208F101080BDB96FBF0F33033EE
:1011900002F8083096FBF0F308F1010800FB136633
:1011A00001E0642E0CDB642096FBF0F3303302F890
:1011B000083096FBF0F308F1010800FB136601E02C
:1011C0000A2E06DB96FBF1F0303002F8080008F139
:1011D000010896FBF1F001FB1060303002F80800C6
:1011E000A16908F1010808EB050202EB0A00081AE0
:1011F000A0612078C00602D42046FFF717F9216AC3
:1012000008AE01EB0A00206204E0D4E9012116F8DF
:10121000010B9047BAF1010AF7D22078C00602D537
:101220002046FFF703F96E4609E016F8010B3E2849
:101230000FD0D4E901219047206A401C2062B8F108
:101240000108F2D22046FFF707F909B00320BDE8F4
:10125000F08F206A2844206203E0D4E90121302085
:1012600090476D1EEBD3F8E7D956000002FCFFFF54
:1012700001694A1C02610878704700B58FB0CDE95A
:1012800001310021059105497944CDE9031011464A
:101290006846FFF749FA0FB000BD0000E5FFFFFF09
:1012A0000A6802F8010B0A607047D1E900239A42EC
:1012B00002D2531C0B601070704710B5436913B114
:1012C000AFF3008001E0FFF7EAF8012010BD1278CB
:1012D00000F124010A7000224A700122EDE7116832
:1012E0004FF0FF32E9E710B5436913B1AFF3008067
:1012F00001E0FFF739F9012010BD128800F1240147
:1013000082840022C2840122EDE711684FF0FF328F
:10131000E9E73A2800D2303820F02002412A01D3F0
:10132000A2F13700884201D34FF0FF307047000030
:101330002DE9FF4F06468BB00878FF2806D0491CE0
:101340002D2805D000244FF0000908E000200CE013
:101350000124F8E709EB8903491C00EB43090878ED
:10136000FF28F7D114B1C9F100008146107800259B
:101370002C46AA4629462D2801D02B2804D1521CE0
:101380002D2813D0002082468B461078FF280FD0DE
:101390004FF0000C0A21521CA5FB017804FB0181CF
:1013A00005FB0C11C5194BEB0104EEE70120EAE740
:1013B000002108464FF00000BAF1000F02D000EB08
:1013C00080004008C0F38157012F01DD4FF0FF3747
:1013D0000E9955EA040009EB01080BD04FF0020901
:1013E00018F5FA7F16DA4FEACA70002F706008DD30
:1013F000012007E04FEACA70C6E900B00FB0BDE8AF
:10140000F08F0020306000F075FAC0F800901821CD
:10141000084616E0B8F5FA7F18DD002F02DAF74823
:10142000784401E0F6487844D0E90010C6E900109D
:1014300040EACA70706000F05DFAC0F800901421B4
:1014400008460FB0BDE8F04F05F01DB80021084672
:101450004FF00000B8F10001099002DAC7F1000274
:1014600000E03A4601DAC8F1000106A800F0A2FC4B
:1014700006AB93E8070003AB83E8070044F23E00A5
:101480005BEA04010090584604D144F21E012C4648
:101490005D460091210C0904014306D10099240402
:1014A00044EA15442D041039009104F07F410143B2
:1014B00006D10099240244EA15642D0208390091EE
:1014C00004F07041014306D10099240144EA1574E7
:1014D0002D01091F009104F04041014306D10099FC
:1014E000A40044EA9574AD00891E009104F0004107
:1014F000084304D100986D196441401E00904FF0DC
:1015000001033A466846B8F1000FCDE9014503A949
:1015100002DD03F0FAFD01E003F0CDFDBAF1000FAA
:1015200004460D4601D084F00044002108464FF0E7
:101530000000099940F2FF77484010F00C0F07D1E6
:1015400024F00040284303D0C4F30A50B84212D11B
:1015500000F0D0F9C0F80090C4F30A50B8420AD1A4
:10156000A8487844D0E90010C6E9001004F0004112
:101570000843706042E7C6E900543FE72DE9FF4F9A
:101580001F464FF0000A4FF0FF38454691B0D7E9AB
:101590000146CDF83CA000F0A9F9C0680168405CA4
:1015A0001090B96912986D1C8847396A814688473E
:1015B0000028F6D1B9F1FF3F0AD0002E24F4D06400
:1015C00011DDB9F12B0F08D0B9F12D0F0BD102E0CD
:1015D000404615B013E744F48064B96912986D1C55
:1015E0008847761E8146600504A901D52D2000E0BC
:1015F0002B20002E01F1010B0DF130088DF81000A9
:101600003FDDB9F1690F08D0B9F1490F05D0B9F143
:101610006E0F02D0B9F14E0F1CD13B4601A80095C8
:1016200080E85002DDE912126FF0020004F096FF2C
:10163000C11CCED10EE0B96912986D1C8847814655
:101640001398761E44F4007405600F98401C002E19
:101650000F9016DDB9F1300FEDD0B9F1780F02D04F
:10166000B9F1580F0DD10F9801280AD13B46CDE9A9
:101670000054DDE91212001F029604F06DFFC11C38
:10168000A7D1109989453ED144F0800406E0139912
:10169000681CAAF1010A44F400740860B9696D1C61
:1016A0001298761E884730288146F0D02BE010999A
:1016B000894505D1200603D4761E44F0800418E045
:1016C000484604F0F0FB08B3761E0DF12302934563
:1016D000A9F1300044F4007406D20BF8010B200687
:1016E00007D5AAF1010003E0200602D40AF10100A7
:1016F0008246A00502D51399681C0860B969129842
:101700006D1C88478146002ED1DC53E0002E51DD50
:10171000B9F1650F02D0B9F1450F4BD1A00549D5FC
:10172000B9696D1C1298761E24F440748847002E07
:1017300081460CDD2B2804D0B9F12D0F07D144F4DC
:101740008074B96912986D1C8847761E8146E00541
:1017500001D52D2100E02B2108F8011BCDF80080D8
:1017600021E0761E0DF13901884544F400740CD255
:10177000A9F1300010F0FF0088F8000002D10099B4
:10178000884509D908F1010806E0E00501D51E48A1
:1017900001E042F20F708246B96912986D1C8847C9
:1017A000814613980560002E04DD484604F07BFB5B
:1017B0000028D6D1F96912988847FF2053468BF844
:1017C000000088F8000000200A900B9004AA0CA9E1
:1017D0000AA8FFF7ADFDA00502D46FF00100F8E6FE
:1017E00014F0240F12D0E0071CD13868DDE90A128A
:1017F000031D3B600068C0E9001213E0007B00009D
:10180000F27A0000B6790000F1D8FFFF0AA9684615
:1018100004F036FBE00705D13868009A011D3960F5
:10182000006802602846D4E602681144137801601B
:1018300018467047D160054979445161044979449B
:10184000116200211161114600F0FAB8EDFFFFFFAF
:101850006B010000426842B1016811F8013B23B1FD
:10186000521EC0E90012184670470121C160881E4F
:10187000704742685AB1C368016843B983688B42B4
:1018800005D0491E521CC0E90012002070474FF0DD
:10189000FF3070472DE9F04116460C46054600F032
:1018A0001DF8036893F80101012807D0FF2C12D816
:1018B000185D80B101202C70BDE8F081D3F80701DC
:1018C0003246214603F20713C7182846BC46BDE836
:1018D000F041002360474FF0FF30EDE710B500F016
:1018E00005F8001D10BD00BF894600000048704784
:1018F000600000200048704740000020B2F1200343
:101900000AD5C2F1200301FA02F120FA03F341EAF9
:10191000030100FA02F0704700FA03F14FF00000F3
:10192000704730B5B0F10A0271F100034FEA900E32
:101930004EEA817EB0EB0E0061EB91014FEA101E82
:101940004EEA017E10EB0E0041EB11114FEA102E12
:101950004EEA016E10EB0E0041EB11214FEA104EE2
:101960004EEA014E10EB0E0041EB1141401841F1DF
:1019700000014FEAD00040EA41704FEAD1014FEA3E
:10198000810444EA907410EB800544EB01046D1966
:1019900044EB0404521BA3414FF0000348BF0A323A
:1019A00000D530BD401C41F1000130BD10B50446EA
:1019B000FFF794FF0068005D00F0010010BD00001B
:1019C0002DE9F0411F46044603260168072A01F469
:1019D000006004DB08B116A505E016A503E008B118
:1019E00015A500E015A521F010002060A069C01E1B
:1019F000A0610FB1401EA0612046FEF717FD4FB158
:101A0000D4E9012138469047206A401C2062C01C5E
:101A1000206206E0206AFAE7D4E9012115F8010BFB
:101A20009047761EF8D22046FEF716FDBDE8F081FD
:101A30004E414E006E616E00494E4600696E660072
:101A40002DE9F34F4FF0000A0C4656468DB00120A9
:101A50000C9001F10C000B9062690B9801219047EA
:101A6000051E2DD0252D2CD0216A8847C0B1626972
:101A70000B9801219047216A88470028F7D16269B5
:101A8000411E0B98904700E0761CA1690D9888478D
:101A9000216A88470028F7D1E1690D988847DBE77C
:101AA000A1690D988847A842074601D1761CD3E763
:101AB000E1690D9888477F1C02D1BAF1000F6FD001
:101AC0006BE162690B9800273D46394690472A280A
:101AD00004D162690B98012190470125DFF8D0827B
:101AE00062690B9801219047A0F130010A290AD2BE
:101AF0004745E5DC07EB870100EB4107303FDFD4CA
:101B000045F01005ECE7E90601D46FF000476C28BA
:101B10000AD04C2814D0682815D06A280DD0742813
:101B20001CD07A281AD01DE062690B9801219047D9
:101B30006C2802D045F0040514E045F002050DE0E4
:101B400045F020050AE062690B980121904768285A
:101B500002D045F0080505E045F4006562690B9880
:101B600001219047C4E9015765283DD019DC582868
:101B70007AD00CDC452837D004DC252826D0412833
:101B80009ED131E046282FD0472899D12CE05B2800
:101B900077D0612828D063287CD0642823D15AE0EC
:101BA000F6E06F2848D008DC66281DD067281BD0D7
:101BB000692821D06E2816D127E0702845D07328D7
:101BC00068D0752847D078280DD14DE0A1690D98CF
:101BD0008847252805463FF469AFE1690D98884795
:101BE0006D1C3FF46AAFD8E00D9923466A466FF04A
:101BF000010004F0AFFCC5E045F0400023464FF083
:101C000000026060A80736D43EE0E8077FF447AFE3
:101C10002068011D21600068290501D506701BE7B9
:101C2000290701D5068017E7A90703D5F117C0E9F1
:101C3000006111E706600FE745F0400023464FF0D2
:101C400008026060A80716D41EE040F60E0125EADF
:101C50000100606016E045F0400023464FF00A02A4
:101C60006060A80707D40FE045F040006060A80757
:101C700008D5234610220D996FF00100AFF30080C4
:101C800080E007E0102223460D996FF00100FEF777
:101C90002DFE77E04FF0000963284F46C8464B46BB
:101CA000CB4602D05B2806D038E0E80601D40120FC
:101CB000A060012732E06269D4F80CB00B980121D2
:101CC00090475E2807D14FF0010949466269D4F870
:101CD0000CB00B989047216939B900210A4603AB33
:101CE00043F82120491C0829FADBD8B3216949B3FC
:101CF00008F1010862690B98012190475D28F4D131
:101D0000B9F1000F09D0002003A951F82020D243D7
:101D100041F82020401C0828F7DB03AB206900288D
:101D200020794FEA40701ED05B462246CDF80080F5
:101D3000CDE901970D9900286FF0010020DAAFF38B
:101D400000801FE0C11703AA00EBD1614B1121F005
:101D50001F0102EB8302411A1368012088400343EC
:101D60001360C7E719E00D99224600286FF00100C3
:101D7000009702DAAFF3008004E0AFF3008001E0E7
:101D8000AFF3008000280ADA401C06D10C9820B17D
:101D90004FF0FF300FB0BDE8F08F5046FAE7E9078B
:101DA00001D10AF1010A064400200C9054E600001B
:101DB000CCCCCC0C2DE9F047814616468AB035488C
:101DC00078440DC88DE80D0032487844801C03AC7F
:101DD0000DC884E80D0041F69B300844372190FB84
:101DE000F1F290FBF1F5A5F1800501FB12041B3C1B
:101DF00002D56442012000E00020DFF898A0804670
:101E00000027FA44AAF1BE0A0EE0E0070AD03246E3
:101E1000684607EB470101230AEB810103F060F9F3
:101E20008DE8070064107F1C002CEED1194F7F4411
:101E3000AE3F19E0E80715D007EB04100DF1180AC2
:101E400090E80E008AE80E00C068F04201D19819AF
:101E500008903246012306A903A803F041F903AB19
:101E600083E807006D10641C002DE3D14FF00103DF
:101E700032466946B8F1000F03A802D003F006F914
:101E800001E003F02DF9C9E90001C9F808200AB002
:101E9000BDE8F087244A0000004870474000002059
:101EA0007546FFF7F9FFAE4605006946534620F038
:101EB0000700854618B020B5FEF7FAF9BDE82040C6
:101EC0004FF000064FF000074FF000084FF0000BF6
:101ED000AC46ACE8C009ACE8C009ACE8C009ACE865
:101EE000C00921F007018D46704700002DE9FF4F22
:101EF0001F464FF03C0987B04FF00042DDE9141057
:101F000001F10108DDF858A002EA405003900020DA
:101F100005908346054604460490B969461E089814
:101F20008847AAF1010A0290BAF1000F3BDD02983E
:101F30002E2815D01021FFF7ECF900282EDB4FF0EA
:101F4000010B0599014317D0B9F1000F0BDB4A468D
:101F5000C117FFF7D3FC05430C43A9F1040905E0C1
:101F6000012004900BE008B145F001050120059027
:101F7000049820B9361D02E0049800B1361FB969F3
:101F8000089808F101088847BBF1000FAAF1010A7F
:101F90000290C9D00999C1F80080C5E7029870285D
:101FA00008D0502806D0F96908988847BBF1000F7F
:101FB00014D04FE0002002900120BBF1000F0490EC
:101FC00009D0B969089808F101088847AAF1010900
:101FD000B9F1000F07DCF969089888476FF0010034
:101FE0000BB0BDE8F08F2B2804D02D280CD14FF07A
:101FF000FF300490B969089808F101088847A9F1F1
:102000000109B9F1000FE6DD411CE4D00A21FFF718
:1020100080F90028DFDB029908F1010801EB81015A
:1020200000EB41000290B969089888470A21FFF740
:1020300070F9099AA9F10109B9F1000FC2F80080FD
:1020400001DD0028E7DAF9690898884704990298C1
:1020500000FB016655EA040004D004F04041090089
:1020600002D006E0039898E0A40044EA9574AD001D
:10207000B61E04F00041080002D16D196441761EBD
:10208000159810F0240F03D04FF00B095C4803E0C3
:102090004FF028096FF07D008246564507DAAAEB1B
:1020A00006018944B9F1410F01DD4FF041090120DA
:1020B0000021A9F10102FFF721FC024628400B464E
:1020C0002140084301D0012100E00021501E02916F
:1020D00043F1FF3128402140084301D0012000E0B6
:1020E00000200299834651EA0B014FD00021084697
:1020F0004FF00000039900F4400039B100EB80007C
:102100004FF4400100EBD07001EA60008015012817
:1021100002DD4FF0FF3000E013D0401C36D00298B3
:1021200060B3BBF1000F0CD14A4601200021FFF73C
:10213000E5FB28402140084301D0012000E00020B9
:10214000E0B101204A460021FFF7D8FB03464019C1
:102150000A4661412D1A8C4111D3B9F1400F09DDB6
:10216000159810F0240F02D0AAF1340603E0AAF16A
:10217000170600E0761C00254FF0004406E05B1EC9
:1021800042F1FF3220EA030521EA0204CAF101000C
:10219000B04206DA1B4903980843019000200090E2
:1021A0000EE0039AC4F3D321E80A0A43164940EA31
:1021B00044500A433146CDE90002684603F069FE07
:1021C000159810F0240F0BD01598C00715D138685A
:1021D000DDE90012031D3B600068C0E900120CE05D
:1021E00002A8694603F04CFE1598C00705D138686F
:1021F000029A011D3960006802604046F0E6000066
:1022000002FCFFFF0000F07F0000F03F2DE9FF4FD0
:1022100092461D4685B04FF00041DDE9124BDDE9E5
:1022200014727F1E01EA4B50414940F0FF4940EAD9
:102230000108002122F020004928049102D04E28F4
:1022400028D04CE03BA0012607C88DE80700A9690B
:102250000698641C88477F1E014606D41DF80600B8
:1022600018B121F0200181420BD0E9690698884716
:10227000032E34D0082E32D06FF0010009B0BDE833
:10228000F08F761C032E01D0082EE0D1601CCAF816
:102290000000DCE7A9690698641C88477F1E2AD4E1
:1022A00020F02000412826D1A9690698641C88479F
:1022B0007F1E20D420F020004E281CD1A96906984A
:1022C000641C88477F1E48F4002849F48009CAF836
:1022D000004001D4282806D0E969069888475FEABB
:1022E000CB7012D022E0A9690698641C88477F1E33
:1022F00001D4002803DAE96906988847BCE7292851
:10230000F1D1641CCAF80040E9E71BF0240F07D0A4
:1023100028680499031D2B600068C0E9001805E0D7
:102320002868021D2A600068C0F800902046A5E7D2
:102330000000F07F494E46494E49545900000000C4
:1023400010B50446AFF300802046BDE81040FDF70D
:102350009ABF00000000000030B44FF0013C50F87C
:10236000042B51F8043BCCFA52F4D51A20D1FCB915
:1023700050F8042B51F8043BCCFA52F4D51A17D17B
:10238000B4B950F8042B51F8043BCCFA52F4D51AE6
:102390000ED16CB950F8042B51F8043BCCFA52F42E
:1023A000D51A05D1002CDAD030BC4FF000007047B0
:1023B00029BAB1FA81F111F01801D1F1200084405D
:1023C000F2D1CA40CB4012F0FF0213F0FF0330BC41
:1023D000D01A7047FEE70000704700002DE9F04773
:1023E0002DED088B82B0B0EE41AAB9EE041A8AEE48
:1023F000011AB0EE408AB0EE609A0446B0EE410A8F
:1024000003F062F8B7EE00BA9FED6C1A3BEE402A7B
:1024100022EE011A9FED6A2A9FED6A3A2AEE022AFD
:1024200082EE032A40F2A00094ED083AC2F20000C6
:1024300080ED000A20EE030A21EE091A94ED094A04
:1024400031EE000A84ED080A9FED5FAA00214FF0EB
:102450007E58B0EE4B1A22EE090A30EE040AB4EEB2
:102460004B0A04F1080704F13005C0E90111C0F876
:102470000C80F1EE10FAB8BFB0EE401AB5EE401A7B
:10248000B0EE4A0A384621462A46F1EE10FAC8BF95
:10249000B0EE410A84ED090A01F032FE38462946C1
:1024A00001F0B6FE04F12809284639464A4601F0F3
:1024B00027FE40F6E400C2F2000090ED000A9FED16
:1024C000431A90ED032A30EE010A80ED000A32EE45
:1024D000010A80ED030A40F2B40694ED090AC2F243
:1024E0000006C6F8008001F0CDFE04F1100804F1EA
:1024F00038074046394686ED010A01F089FE04F1AD
:10250000180A48463946524601F0FAFDE16A01AB25
:102510003046022201F0D4FD9DED010A9FED2C1AF8
:10252000E06930EE011A8BEE010A014602228DEDC0
:10253000011A01F095FE94ED090A01F0DBFE9FED12
:10254000251AE06929EE011A38EE011A31EE400A27
:1025500094ED081A90ED002A30EE410A20EE022A8E
:1025600031EE021A84ED081A90ED011A94ED092A51
:1025700020EE010A32EE000AB4EE4B0AF1EE10FA38
:10258000B8BFB0EE40BAB5EE40BA504641462A4612
:10259000F1EE10FAC8BFB0EE4BAA84ED09AA01F023
:1025A000AFFD48462946224601F002FE94ED090A95
:1025B00002B0BDEC088BBDE8F08700BFCDCCCC3DB0
:1025C000EC51783F002023460000000078CC2B32ED
:1025D0000000C8420AD723BC10B540F22403C2F25F
:1025E000000302210222044601F086FD40F2A0030E
:1025F00004F10800C2F200030221022201F07CFD76
:1026000040F2B40304F11000C2F2000301210222DF
:1026100001F072FD40F2C00304F11800C2F20003A1
:102620000221012201F068FD40F6E40304F12800D4
:10263000C2F200030221022201F05EFD40F6EC230B
:1026400004F13000C2F200030221022201F054FD25
:1026500040F6E42304F13800C2F200030221012213
:1026600001F04AFD46F266610020C3F66671C4E9D6
:10267000080110BDEFF3108072B600BFFEE7000046
:10268000B0B5044600F0E4F8054640F23800C2F266
:1026900000000078611C18BF044400BF00F0D8F8A7
:1026A000401BA042FAD3B0BD2DE9F04F83B000F13A
:1026B0003E4202F1FF724FEAB22241F60047019218
:1026C000C4F2020708224FF0010E00254FF0000A65
:1026D0004FF00008B84208BF072200920AE000BF8E
:1026E00008F101080AF1040AB8F1100F05F102051A
:1026F00000F0A4800C680EFA08FB14EA0B09EFD076
:102700004C6804F0030CACF1010EBEF1010F11D8BE
:102710000322876802FA05F6CA68B743AA403A431B
:1027200082604268C4F3001722EA0B0207FA08F736
:102730003A434260BCF1030F1CD0C26803238E6889
:1027400003FA05F7BA4306FA05F73A43BCF1020F5C
:10275000C2600FD16FF0030202EA580202440AF08D
:102760001C060F23176A03FA06F40B69A743B3404C
:102770003B431362026803234F68AB409A4307F060
:102780000303AB401A4317F4403F4FF0010E0260C1
:10279000A6D0002243F644030292C4F202031A6850
:1027A00043F6004442F480421A601A68C4F20104FD
:1027B00002F480420292029A28F003024FF6084B7C
:1027C0002244CFF6FF7B52F80B300AF00C070F269D
:1027D000BE4023EA060C019B009E072B38BF1E4615
:1027E00006FA07F747EA0C0342F80B30A2684B6879
:1027F00042EA090743F60C4CDE0258BF22EA0907F9
:10280000A760C4F2010CDCF800209E0242EA09072E
:1028100058BF22EA0907CCF8007062689E0342EABA
:10282000090758BF22EA090767602268DB0342EA0A
:10283000090358BF22EA0903236051E703B0BDE84A
:10284000F08F0000002A08BF090481617047000072
:1028500040F6FC20C2F200000068704740F23800E9
:1028600040F6FC21C2F20000C2F2000100780A68C2
:10287000104408607047000080B543F60040C4F281
:102880000200016841F400710160016841F4806157
:102890000160016841F480710160032000F060F87C
:1028A0000F2000F005F800F02BF8002080BD00009C
:1028B000B0B540F23802C2F2000240F234011278A0
:1028C000C2F200014FF47A730968B3FBF2F20446D6
:1028D000B1FBF2F1084600F0F5FB0F2C4FF00105BB
:1028E0000CD858B94FF0FF3021460022002500F0E7
:1028F00027F840F23C00C2F2000004602846B0BD58
:1029000082B0002043F640010190C4F202014A68FF
:1029100042F480424A604A6802F480420192019A7D
:102920000090086840F080500860086800F080500F
:102930000090009802B0704780B501F085FB80BD23
:1029400070B514460D46064601F08EFB2946224618
:1029500001F0C8F80146304601F08EFB70BD000062
:1029600080B501F09BFB80BD2DE9F041002800F00F
:102970008B8043F60808C4F202080446D8F8F8032E
:102980000D4600F00700884207D288F8F853D8F8BF
:10299000F80300F00700A84276D12068810717D518
:1029A000410705D5D8F8001041F4E051C8F80010EF
:1029B000010705D5D8F8001041F46041C8F80010AF
:1029C000D8F80010A26821F0F0011143C8F80010F7
:1029D000C0073FD1D8F8F80300F00700A84207D994
:1029E00088F8F853D8F8F80300F00700A8424BD154
:1029F0002068410707D5D8F80010E26821F4E051BB
:102A00001143C8F80010000708D5D8F80000216964
:102A100020F4604040EAC100C8F8000000F07EF8F1
:102A2000D8F8001046F60002C1F30311C0F6000208
:102A3000515C40F2340220FA01F140F23C00C2F253
:102A400000000068C2F200021160FFF731FF0020B1
:102A5000BDE8F0816068811E022907D258F8081C81
:102A600089015CBF0120BDE8F08110E0012807D199
:102A700058F8081C89035CBF0120BDE8F08106E01E
:102A800058F8081C890702D40120BDE8F081D8F865
:102A9000001021F003010843C8F80000FFF7D8FE3A
:102AA000064641F2883700BFD8F80000616800F0A0
:102AB0000C00B0EB810F8DD0FFF7CAFE801BB8422F
:102AC000F2D90320BDE8F08140F23400C2F20000E8
:102AD0000068704780B5FFF7F7FF43F60801C4F2BE
:102AE0000201096846F61002C1F38221C0F6000215
:102AF000515CC84080BD000080B5FFF7E5FF43F69C
:102B00000801C4F20201096846F61002C1F342311D
:102B1000C0F60002515CC84080BD000010B543F60D
:102B20000404C4F20204606800F00C0142F20040A8
:102B30000829C0F2F40007D0042918BF10BD41F2E3
:102B40000020C0F27A0010BD216801F03F02216828
:102B500023684902C3F3881105D4A1FB00010023B7
:102B6000FDF7B9FB06E041F20020C0F27A004843CD
:102B7000B0FBF2F021680222C1F3014102EB4101F6
:102B8000B0FBF1F010BD00002DE9F04182B000284B
:102B900000F0A2800446007843F60006C007C4F2A5
:102BA000020643D0B06800F00C00042805D130685C
:102BB00080033BD56068C8BB8EE0B06800F00C00B5
:102BC000082802D170684002F1D46568B5F5A02FDD
:102BD0000AD0B5F5803F0BD0306820F480303060EB
:102BE000306820F4802006E0306840F480203060B7
:102BF000306840F480303060FFF72AFE002D054633
:102C000011D000BF3068800310D4FFF721FE401BB5
:102C10006428F7D922E100BFFFF71AFE401B6428A1
:102C20004FF0030055D830688003F5D42078800732
:102C30001AD5B06810F00C0F09D0B06800F00C0085
:102C4000082840F08A807068400200F18680306871
:102C5000800702D5E06801283ED13068216920F064
:102C6000F80040EAC10030602078000738D42078AE
:102C700040074CD4A5695DB3B06800F00C0008288B
:102C800040F09E80012D27D07068E16900F4800239
:102C90008A4221D1216A00F03F028A421CD147F6C4
:102CA000C071626A0140B1EB821F15D1A26A002394
:102CB000CFF6FF7303EBC23200F440316FF30F0223
:102CC000914209D1E16A00F07060B0EB016F03D16D
:102CD000002002B0BDE8F081012002B0BDE8F08123
:102CE0006069002840F20000C4F2472057D001215B
:102CF000C0F8801EFFF7ACFD054600BF706F80076F
:102D0000B5D4FFF7A5FD401B0228F7D9A6E0306C2B
:102D100010F080580AD100200190306C40F08050B3
:102D20003064306C00F080500190019847F2000749
:102D3000C4F200073868C00524D4386840F48070B5
:102D40003860FFF785FD05463868C0051AD4FFF7DF
:102D50007FFD401B0228F7D980E0E068002851D0B1
:102D60000020C4F2472001210160FFF771FD0546F4
:102D7000306880073FF571AFFFF76AFD401B0228FE
:102D8000F6D96BE0A568052D50D0012D52D0306FDB
:102D900020F001003067306F20F004004DE000218A
:102DA000C0F8801EFFF754FD054600BF706F800716
:102DB0007FF55DAFFFF74CFD401B0228F6D94DE0D3
:102DC0000027C4F2472700203866FFF741FD022D97
:102DD00005460BD13068800158D5FFF739FD401BFF
:102DE00002284FF00300F5D973E700BF3068800177
:102DF0007FF56EAFFFF72CFD401B02284FF003005C
:102E0000F4D966E70020C4F2472000210160FFF7F3
:102E10001FFD0546306880077FF526AFFFF718FDD8
:102E2000401B02284FF00300F4D952E7306F40F006
:102E300004003067306F40F001003067FFF708FD95
:102E4000002D054641F2883714D000BF306F80074F
:102E500013D4FFF7FDFC401BB842F7D9032002B0A2
:102E6000BDE8F081FFF7F4FC401BB8424FF00300CF
:102E70003FF62FAF306F8007F4D4B8F1000F7FF426
:102E8000F9AE306C20F080503064F3E604F11C059C
:102E90002FCD08430021CFF6FF7140EA821001EBED
:102EA000C3316FF30F0140EA0560084370600120F1
:102EB0003866FFF7CDFC0446306880013FF508AF67
:102EC000FFF7C6FC001B02284FF00300F4D900E70F
:102ED00070B538B10446406A30B10020206104F179
:102EE000140007E0012070BD6068B0F5827F03D058
:102EF00004F11C00002101600026A66294F8510034
:102F000020B9204684F8506000F03CF8022084F894
:102F1000510094E80F0001F48271056802F4044244
:102F200025F040050560114403F400622369114453
:102F300003F002026369114403F00102A369E56929
:102F4000114403F40072114405F03802256A11445B
:102F500005F08002A56A114305F400521143016097
:102F6000626A042101EA134102F010021144416037
:102F7000C16921F40061C1610120666584F85100D6
:102F8000304670BD2DE9F04387B040F60044C4F2EE
:102F900002040068A4F5E83100278842CDE90577EE
:102FA000CDE90377029702D007B0BDE8F08343F67E
:102FB00030000197C4F202000169A4F5006641F4F3
:102FC00000410161016902AD01F4004101910199E3
:102FD000019701684FF0020841F0020101600168A9
:102FE00001F00201019101990197016841F002018C
:102FF0000160016801F002010191019901970168E6
:1030000041F008010160016801F008010191019996
:103010000197016841F008010160016801F00801B1
:10302000019101990197016841F008010160006870
:10303000294600F008000190019808200290032022
:103040000590062006903046CDE90387FFF72CFB5C
:103050002020029030462946FFF726FB012603A8D0
:103060004FF4006980E8C00120462946CDF8089059
:10307000FFF71AFB4FF4005002A9C1C120462946B0
:103080000597FFF711FB4FF4805002A981E8C101B9
:1030900020462946FFF708FB20464FF480510122C5
:1030A000FFF7D0FB40F61840C4F20200C0F80090D1
:1030B00020464FF400510022FFF7C4FB07B0BDE8E3
:1030C000F083000080B500F015FE80BD002804BF2D
:1030D0000120704710B5044690F83D0028B9002043
:1030E00084F83C00204600F021F8242084F83D00BC
:1030F0002068C16821F40051C160204600F074FED0
:103100002068016921F490410161416921F02A019F
:103110004161C16841F40051C16000202021206458
:1031200084F83D1084F83E1010BD0000B0B586B0A4
:10313000006844F20042C4F2000200219042CDE94E
:103140000411CDE90211019145D041F20001C4F210
:103150000101884240F08180002043F63001009058
:10316000C4F202014A69002442F010024A614A692D
:10317000C4F2020402F010020092009A00900A6861
:1031800001AD42F001020A600A6802F001020092F9
:10319000009A0090086840F001000860086829461D
:1031A00000F00100009000984FF4007001900220A0
:1031B00002900120039003200490072005902046F0
:1031C000FFF772FA4FF48060019020462946FFF71E
:1031D0006BFA06B0B0BD43F630000091C4F20200B5
:1031E0000269002442F4003202610269C4F202045E
:1031F00002F400320092009A0091026801AD42F0A0
:1032000001020260026802F001020092009A00913D
:10321000016841F0010101600068294600F00100E9
:103220000090009804200190022002900120039059
:1032300003200490072005902046FFF735FA082068
:10324000019020462946FFF72FFA26200021002270
:10325000FFF776FB2620FFF76FFB06B0B0BD00003E
:103260002DE9F04381B0054690F83E0020280BD1AF
:103270000E4600294FF0010059D01746002A56D0BB
:1032800095F83C00012803D1022001B0BDE8F0838D
:10329000012085F83C004FF0000922201C46C5F8AB
:1032A000409085F83E00C5F83090FFF7D1FAAF8521
:1032B000EF85A9680746B1F5805F07D12869002826
:1032C0001CBF30464E46B046064601E04FF00008AF
:1032D00085F83C900AE000BF2868002640686FF33C
:1032E0005F2028F8020BE88D0138E885E88DD0B121
:1032F000284620213A46234600F0E4FDD0B9002EAE
:10330000EAD0A868B0F5805F08D008B9286928B16C
:103310002868406800F07F0002E000BF286840682D
:1033200006F8010BDFE7202085F83E00002001B001
:10333000BDE8F083032001B0BDE8F0832DE9F04340
:1033400081B0044690F83D0020280BD10E4600299C
:103350004FF0010055D01746002A52D094F83C0097
:10336000012803D1022001B0BDE8F083012084F8D8
:103370003C004FF0000921201D46C4F8409084F81D
:103380003D00FFF765FAA784E784A1680746B1F519
:10339000805F07D1206900281CBF30464E46B046EA
:1033A000064601E04FF0000884F83C9007E000BFBB
:1033B00016F8010B21684860E08C0138E084E08C4D
:1033C00080B1204680213A462B4600F07BFD80B933
:1033D000002EEDD138F8020B21686FF35F204860B2
:1033E0000026E9E7204640213A462B4600F06AFDD8
:1033F00018B1032001B0BDE8F083202084F83D001F
:10340000002001B0BDE8F083FEE70000B0B540F257
:10341000C805C2F200056889A9890138013940F65A
:10342000184482B28BB200200021C4F2020400F0E2
:10343000CDF940F67810C2F2000000684FF6BF7276
:10344000016811400160016841F400610160016898
:1034500041F0400101604FF0006121606989AA8953
:10346000514369B16A89AB8969685A43002300BF37
:10347000C16000BF8568AD07FCD501339342F7D327
:1034800081680906FCD44FF40061216001684FF6A1
:10349000BF721140016001684FF2FF72114001607C
:1034A000016841F040010160B0BD00002DE9F04F1E
:1034B00083B040F61843C4F202034FF0006740F2B5
:1034C000D8051F60C2F200052B681F89002F4AD063
:1034D000203ACDE90001D0B240F2C802C2F20002A7
:1034E000D2E90046D5F800E040F2DC0B4FF0000ACC
:1034F000C2F2000B4FF000090025029009E000BF66
:103500004FF00009BEF808700AF1010ABA45734687
:1035100022D20298D3F8008007FB00A24F4618F889
:10352000022009F108094FF0000800BFD1071FFA77
:1035300085FC214608BF31462BF81C1001379988BD
:10354000B8B2884205F10105DAD05208B8F1070F88
:1035500008F10108EAD3D5E740F2D805DDE900011A
:103560007346C2F200059A888718DA88013F0A4438
:10357000531EBAB29BB200F029F928688188C0882E
:10358000484381B240F2DC00C2F2000000F0CEF904
:1035900003B0BDE8F08F00002DE9F04F83B001913A
:1035A00040F6DC01C2F200010B68009018681C892B
:1035B00092F8009000274FF0010805E00EF1020795
:1035C0005D89BEB2AE420ED218FA87F606FB04F54C
:1035D000455D1FFA87FE4D45F0D106FB0405567880
:1035E0006D78B542EAD11C89C4B340F2C805C2F275
:1035F0000005D5E9002640F2DC0B4FF0000AC2F2CC
:10360000000B4FF000090025029007E04FF0000981
:103610001C890AF1010A0298A2451FD20EFB04047C
:103620004F4614F80A4009F108094FF0000800BF9E
:10363000E1071FFA85FC114608BF31462BF81C1024
:1036400001379988B8B2884205F10105DED06408D7
:10365000B8F1070F08F10108EAD3D9E79988009873
:10366000DA8801444F1E01990A44531EBAB29BB234
:1036700000F0ACF840F6DC00C2F20000006881887F
:10368000C088484381B240F2DC00C2F2000000F082
:103690004DF903B0BDE8F08F70B588B0054640F233
:1036A000C800C2F20000007A0C4609A60AA1002850
:1036B00008BF314603AE30468DED000BFCF784FEAB
:1036C00028462146324600F02FF808B070BD00BFF2
:1036D00025302A2E2A6C6600252A2E2A6C660000C8
:1036E00070B584B0054640F2C800C2F20000007A0E
:1036F00094460C4609A20BA10DF10106002808BF53
:10370000114630461A466346FCF75EFE28462146BF
:10371000324600F009F804B070BD00BF25302E2AF3
:1037200064000000252A64002DE9F04140F2C8073A
:10373000C2F2000714467A89824217D940F2D808AB
:1037400005460E46C2F200082278002A08BFBDE8EE
:10375000F081A8B23146FFF7A9FED8F80000013485
:10376000808805447889A9B28142EDD3BDE8F08113
:103770002DE9F04115461278002A08BFBDE8F08116
:1037800040F2D80740F6DC080C460646C2F20007B5
:10379000C2F200080DE000BFB0B221462A46FFF792
:1037A000FBFE0220414609682A5C898805440E44D4
:1037B00052B150B20028EFD4B0B2D2B22146FFF7D6
:1037C00075FE01203946EEE7BDE8F0812DE9F043B2
:1037D00081B040F618480746C4F202084FF0006076
:1037E000C8F800002A20994616460D4600F0E0F879
:1037F00040F2C804C2F20004A07B384480B200F05A
:10380000FDF8A07B304480B200F0F8F82B2000F0E7
:10381000CFF8E07B284480B200F0F0F8E07B484429
:1038200080B200F0EBF82C2000F0C2F840F67810DF
:10383000C2F20000006800BF81680906FCD44FF4A2
:103840000060C8F8000001B0BDE8F08340F2D80184
:10385000C2F20001086070474FF478414FF4FC62F7
:1038600001EA102102EA5012C0F3C40011440844D6
:1038700040F2C801C2F20001486070474FF478413D
:103880004FF4FC6201EA102102EA5012C0F3C400B6
:103890001144084440F2C801C2F2000108607047B8
:1038A0002DE9F04140F6184840F2C806C4F202087B
:1038B000C2F200064FF0006103287072C8F80010D1
:1038C0001FD8F0274FF4A0757024DFE800F0100235
:1038D000070CF0274FF4A075A02408E04FF4A07760
:1038E000F025002403E04FF4A077F025C024362013
:1038F00000F05EF8204600F091F80020F08175811C
:10390000B78140F67810C2F20000006881680906AD
:10391000FCD44FF40060C8F80000BDE8F08100005E
:1039200040F2C801C2F200010872704780B540F64B
:103930007812C2F2000212684FF6BF73D2F800C0CC
:1039400003EA0C031360136840F6184C43F4006359
:1039500013601368C4F2020C43F0400313604FF08D
:103960000063CCF8003069B14FF0000E30F81E3023
:10397000D36000BF93689B07FCD50EF1010E8E4506
:10398000F4D100BF90680006FCD44FF40060CCF87E
:10399000000010684FF6BF710840106010684FF2C9
:1039A000FF7108401060106840F04000106080BD5A
:1039B00070B540F67816C2F200063168054600BFC1
:1039C00088680006FCD440F60044C4F20204204695
:1039D0004FF480510022FEF735FF3068C56000BF0C
:1039E00081688907FCD500BF81680906FCD42046A0
:1039F0004FF480510122FEF725FF70BD40F678118B
:103A0000C2F200010968020ACA6000BF8A68920710
:103A1000FCD5C86088688007FCD5704740F67811EF
:103A2000C2F200010968C86088688007FCD5704749
:103A300070B586B0002543F630000595CDE90355F5
:103A4000CDE901550095C4F20200016840F600047A
:103A500041F0040101600068C4F2020400F00400B7
:103A60000090009820464FF4005100224FF4005679
:103A7000FEF7E8FE0120CDE9020501A920460196E6
:103A80000495FEF711FE06B070BD000010B540F6BB
:103A9000781443F60040C2F20004C4F200004FF470
:103AA00082714FF4004200234FF4007C84E80F0041
:103AB0002046C4E90433C4E906C3C4E90833C4E9B1
:103AC0000A33FFF705FA2068016841F04001016000
:103AD000016841F48041016010BD0000FEE7000074
:103AE000FEE7000000F0070080F00703042B28BF6A
:103AF00004234FF0FF3C03380CFA03F338BF0020D7
:103B0000994381400CFA00F022EA00000843704714
:103B10007047000010B540F61844C4F20204FFF7E5
:103B2000B5FF0A20FEF7ACFD4FF0006020603620A4
:103B3000FFF73EFF0020FFF771FF3A20FFF738FF45
:103B40000520FFF76BFFB220FFF732FF0C20FFF7D5
:103B500065FF0C20FFF762FF0020FFF75FFF3320B7
:103B6000FFF75CFF3320FFF759FFB720FFF720FF77
:103B70003520FFF753FFBB20FFF71AFF1920FFF78F
:103B80004DFFC020FFF714FF2C20FFF747FFC22096
:103B9000FFF70EFF0120FFF741FFC320FFF708FFEB
:103BA0001220FFF73BFFC420FFF702FF2020FFF7A2
:103BB00035FFC620FFF7FCFE0F20FFF72FFFD020B8
:103BC000FFF7F6FEA420FFF729FFA120FFF726FF4D
:103BD000E020FFF7EDFED020FFF720FF0420FFF7E5
:103BE0001DFF0D20FFF71AFF1120FFF717FF13200D
:103BF000FFF714FF2B20FFF711FF3F20FFF70EFF09
:103C00005420FFF70BFF4C20FFF708FF1820FFF7A9
:103C100005FF0D20FFF702FF0B20FFF7FFFE1F201F
:103C2000FFF7FCFE2320FFF7F9FEE120FFF7C0FEBF
:103C3000D020FFF7F3FE0420FFF7F0FE0C20FFF783
:103C4000EDFE1120FFF7EAFE1320FFF7E7FE2C2020
:103C5000FFF7E4FE3F20FFF7E1FE4420FFF7DEFE22
:103C60005120FFF7DBFE2F20FFF7D8FE1F20FFF7C4
:103C7000D5FE1F20FFF7D2FE2020FFF7CFFE232026
:103C8000FFF7CCFE2120FFF793FE1120FFF790FEF7
:103C90007820FEF7F5FC2920FFF78AFE40F6781021
:103CA000C2F20000006800BF81680906FCD44FF42E
:103CB000006044F818090220FFF7F2FD0020FFF72A
:103CC000CBFD6FF07F40FFF7D9FDFFF79FFB40F280
:103CD0001800C2F20000FFF7B9FD0020FFF720FE38
:103CE00020464FF400510122FEF7ACFD10BD00004C
:103CF00070470000B0B501380024B4EB106F1CBF52
:103D00000120B0BD4EF21005CEF2000568604FF004
:103D1000FF300F2100F0B0F90720AC60286020468A
:103D2000B0BD000080B5FEF799FD80BD70B592B0C2
:103D300006AC20463021FCF77FFE002543F640000C
:103D40000595CDE90355CDE901550095C4F2020072
:103D50000168022641F080510160006800F0805047
:103D60000090009847F200000095C4F2000001683E
:103D700041F480410160006800F4804000900098A8
:103D8000012006904FF4803007904FF480000D9092
:103D900008200E904FF4A870CDE90F060420119072
:103DA00020460C96FEF7F0FE88B90F20CDE90106FB
:103DB0004FF4A05004904FF48050059001A80521C5
:103DC0000395FEF7D1FD002804BF12B070BDFEF7C9
:103DD00051FC00004EF68850CEF20000016841F41C
:103DE000700101607047000010B504460068D4E916
:103DF00002C22369016921F44051114301616269E2
:103E000043EA0C01E3691143C268194349F20C63A8
:103E10009A431143C1604169A26921F4407141F2A2
:103E20000043114340F48062C4F201039A424161AD
:103E300002D1FEF761FE01E0FEF74CFEE169636826
:103E40001922B1F5004FA0FB02011CD15A00DB0F73
:103E5000FCF741FA48F21F51C5F2EB11A0FB012318
:103E60005A096FF0630302FB0300322303EBC00027
:103E7000A0FB01014FF4F87000EA111000EB0210F2
:103E8000C1F342111AE09A009B0FFCF724FA48F2A2
:103E90001F51C5F2EB11A0FB01235A096FF0630318
:103EA00002FB0300322303EB0010A0FB0101F02012
:103EB00000EA511000EB0210C1F3431122680843DD
:103EC000906010BD2DE9F04104460068006808408C
:103ED000884202D10020BDE8F0811D460E46904682
:103EE0005F1C04E0206800683040B042F2D0002F30
:103EF000F8D02DB1FEF7ACFCA0EB0800A842F1D938
:103F0000206850E8030F216820F4D07041E80302D4
:103F1000002AF5D1206850E8050F216820F0010043
:103F200041E80502002AF5D1202084F83D0084F8FC
:103F30003E00002084F83C000320BDE8F081000032
:103F400080B540F6D01041F20001C2F20000C4F288
:103F5000010100234FF00C0C4FF4E13280E80E0019
:103F6000C0E90333C0E905C3C361FFF7AFF880BD03
:103F700040F61420C2F2000000680168890620D5CE
:103F8000416840F6DA20C2F2000002887E2A11D889
:103F9000CAB203880A2A15D140F65821C2F200019C
:103FA0000022CA5440F6D821C2F2000101230B704E
:103FB000028070470021018040F65820C2F20000C4
:103FC000017070477E2B0ED1018840F65822C2F254
:103FD00000020023535440F6D821C2F2000101220E
:103FE0000A70038070470D2A08BF70470288531C6F
:103FF000038040F65820C2F2000081547047000050
:1040000010B540F6142444F20040C2F20004C4F299
:1040100000004FF4E13100220C2384E80700204621
:10402000C4E90322C4E90532E261FFF74FF8002832
:1040300018BFFEF71FFB2068C16841F02001C16076
:1040400010BD0000FEE70000002848BF704700F0E8
:104050001F01012202FA01F14EF200124009CEF2D4
:10406000000242F8201070474EF60C50CEF20000CD
:104070000068C0F3022070474EF6145300F00F02A0
:10408000CEF2000309011A4400F16043B0F1FF3F92
:10409000C8BF03F564421170704700004EF60C5122
:1040A000CEF200010A684FF6FF031A4060F30A22BD
:1040B00042F0806040F0FD7008607047704700007B
:1040C0009AB19FED0C0A0438043900BF90ED011A33
:1040D00091ED012A043021EE021A043130EE010A7A
:1040E000013AF3D183ED000A70479FED020A83ED98
:1040F000000A704700000000018042804360704762
:104100002DE9F04F81B046880B889E4243D1B0F82C
:1041100000C013889C4540D1B1F802E053889E4509
:104120003DD14068D1F8049051689FED200AA0F17C
:1041300004084FEA860A4FEA8E054FF0000B009103
:1041400005E000BFF344BCF1010CD04429D0009835
:104150004C4600EB8B00714606E000BFA0EC011A54
:10416000013904F10404EDD0002EB0EE401AF5D070
:10417000274642463346B0EE401A00BF92ED012A70
:1041800097ED003A043222EE032A31EE021A013B87
:104190002F44F3D1E2E7FD2004E0FD2002E0FD2002
:1041A00000E0002040B201B0BDE8F08F0000000048
:1041B00080B5B0F800E00B889E4525D1B0F802C06C
:1041C0004B889C4520D113889E451DD153889C4522
:1041D0001AD10CFB0EF3A3B14068D1F804C05168AA
:1041E000021F081FACF1040192ED010A91ED011AC2
:1041F000043230EE410A80ED010A04300431013B03
:10420000F2D1002040B280BDFD2040B280BD000050
:10421000B0B5B0F800E04A8896451AD1B0F802C0AF
:104220000A88944515D14A6840684FEA8E0304E035
:10423000BEF1010E02F104020ED0BCF1000FF7D066
:104240001146644650F8045B013C0D601944F9D1F5
:10425000EEE7FD2040B2B0BD002040B2B0BD00008E
:10426000002A08BF7047031F081F00BF93ED011A03
:10427000043321EE001A80ED011A0430013AF5D121
:104280007047000080B52DED048BF1EE000AB0EE12
:10429000408A01F079FA9FED121AF0EE080A20EE3A
:1042A000019AB0EE480A01F06FFA9FED0E1A28EE5F
:1042B000082A20EE010A9FED0C1A39EE000A22EEC0
:1042C000011A9FED0A2A31EE000A28EE021A9FED2C
:1042D000082A30EE010A30EE020ABDEC048B80BDE4
:1042E0003F35004134A204C252A732429565C1C194
:1042F000CC7FB24080B52DED048BF1EE040AB0EE18
:10430000408A01F041FA9FED181AF1EE000A20EE02
:10431000019AB0EE480A01F037FA9FED141AF0EE58
:10432000080A20EE010A39EE009AB0EE480A01F0C0
:104330002BFA9FED0F1A28EE082A20EE010A9FEDB6
:104340000D1A39EE000A22EE011A9FED0B2A30EE0B
:10435000010A28EE021A9FED092A31EE000A30EE1A
:10436000020ABDEC048B80BDFF21CD3F34A204C105
:104370006E346E41956541C1CC7FB240014D204005
:1043800080B540F20000C2F20000FFF75FFA40F68D
:10439000F800C2F20000006801F0F2FF41EC100BDF
:1043A0000020002103220223FFF776F940F60010D7
:1043B000C2F20000006801F0E3FF41EC100B322074
:1043C000002103220223FFF767F940F60810C2F22A
:1043D0000000006801F0D4FF41EC100B64200021C4
:1043E00003220223FFF758F940F61010C2F2000032
:1043F000006801F0C5FF41EC100B9620002103225C
:104400000223FFF749F940F61810C2F200000068D5
:1044100001F0B6FF41EC100BC8200021032202235B
:10442000FFF73AF940F62010C2F20000006801F0F0
:10443000A7FF41EC100BFA20002103220223FFF713
:104440002BF940F6FC00C2F20000006801F098FF72
:1044500041EC100B0020142103220323FFF71CF969
:1044600040F60410C2F20000006801F089FF41EC40
:10447000100B3220142103220323FFF70DF940F61D
:104480000C10C2F20000006801F07AFF41EC100B42
:104490006420142103220323FFF7FEF840F61410D2
:1044A000C2F20000006801F06BFF41EC100B962097
:1044B000142103220323FFF7EFF840F61C10C2F289
:1044C0000000006801F05CFF41EC100BC8201421D3
:1044D00003220323FFF7E0F840F62410C2F20000A5
:1044E000006801F04DFF41EC100BFA20142103226B
:1044F0000323FFF7D1F840F20C00C2F20000FFF7EF
:10450000A5F940F63410C2F20000006801F038FF4F
:1045100041EC100B0020322103220423FFF7BCF8EA
:104520002DA200206421FFF723F940F2BC00C2F263
:1045300000000278002078210123FFF7D1F828A29B
:1045400050206421FFF714F940F2B000C2F20000DD
:104550000278502078210123FFF7C2F822A2A02080
:104560006421FFF705F940F6E000C2F2000002788E
:10457000A02078210123FFF7B3F81DA2F0206421C9
:10458000FFF7F6F840F6F400C2F200000278F020DF
:1045900078210123FFF7A4F840F6DC20C2F20000E6
:1045A000006801F0EDFE41EC100B0020B421042264
:1045B0000423FFF771F840F6E020C2F20000006823
:1045C00001F0DEFE41EC100B6420B4210422042330
:1045D000FFF762F880BD00BF4453475F535441006A
:1045E0004348475F535441004F565F464C41470094
:1045F00055565F464C414700B0B52DED028B40F655
:10460000FC0040F63415C2F20000C2F2000540F68C
:10461000381490ED000AD5ED000AC2F20004B6EE9F
:10462000088A2046B0EE481AFDF7D8FE40F604117D
:10463000C2F2000140F6F80091ED001AC2F200004B
:10464000D5ED000A80ED000A2046B0EE410AB0EE3A
:10465000481AFDF7C3FE40F60C11C2F2000140F605
:10466000001091ED001AC2F20000D5ED000A80EDB5
:10467000000A2046B0EE410AB0EE481AFDF7AEFE41
:1046800040F61411C2F2000140F6081091ED001A34
:10469000C2F20000D5ED000A80ED000A2046B0EE1F
:1046A000410AB0EE481AFDF799FE40F61C11C2F21D
:1046B000000140F6101091ED001AC2F20000D5ED95
:1046C000000A80ED000A2046B0EE410AB0EE481A1A
:1046D000FDF784FE40F62411C2F2000140F61810E6
:1046E00091ED001AC2F20000D5ED000A80ED000A3B
:1046F0002046B0EE410AB0EE481AFDF76FFE40F6D4
:104700002010C2F2000080ED000ABDEC028BB0BDAB
:10471000FEF7B2F8FFF70AFBFFF78AF9FFF710FC84
:10472000FFF76EFCFFF7F6F940F63810C2F2000012
:10473000FDF752FF00204FF00008FFF7B1F840F6F8
:10474000D01440F6281540F6142640F6D82740F637
:104750005829C2F20004C2F20005C2F20006C2F2F9
:104760000007C2F2000900BF204629460322642345
:10477000FEF776FD0028F7D1304629460322642350
:10478000FEF7DCFD38780028EED0484687F8008038
:1047900000F008F8FFF730FFFFF7F2FD204600F0C9
:1047A000C9F8E1E72DE9F04196B010AA02F108013D
:1047B00002F10C0C02F1100E02F114040CAD0DAE5E
:1047C0000EAF8DE8025003A9131DCDE908760A95B6
:1047D0000DF139080DF13A060DF13B070FADB0C1EF
:1047E00047A10696CDF81C80FCF762F80D287AD117
:1047F0009DED100A9FED4E4A9DED111AB8EE400A4C
:1048000080EE040A9DED122AB8EE411A81EE041AD8
:104810009DED133AB8EE422A82EE042AB8EE433AEE
:104820009DED145A83EE043AB8EE455A9DED156A93
:1048300085EE045AB8EE466A86EE044A40F6FC005D
:10484000C2F2000080ED000A40F60410C2F200003F
:1048500080ED001A40F60C10C2F2000080ED002A34
:1048600040F61410C2F2000080ED003A40F61C1031
:10487000C2F2000080ED005A40F62410C2F200009F
:1048800080ED004A0F9840F63411C2F20001086032
:104890009DF83B0040F2BC01C2F2000108709DF897
:1048A0003A0040F2B001C2F2000108709DF83900F0
:1048B00040F6E001C2F2000108709DF8380040F6B1
:1048C000F401C2F2000108700D9840F6DC21C2F23A
:1048D000000108600C9840F6E021C2F20001086077
:1048E00016B0BDE8F08140F60000C4F202004FF4BB
:1048F00000510022FDF7A6FF16B0BDE8F08100BF11
:1049000025752C25752C25752C25752C25752C25A4
:10491000752C25662C256868752C256868752C25EE
:104920006868752C256868752C25662C256600003E
:1049300000007A44F0B581B02DED108BC2B0044672
:1049400040F6F800C2F20000006801F019FD41ECE9
:10495000100B40F60010C2F2000000688DED200B35
:1049600001F00EFD41EC100B40F60810C2F2000001
:1049700000688DED1E0B01F003FD41EC100B40F6BD
:104980001010C2F2000000688DED1C0B01F0F8FC65
:1049900041EC1B0B40F61810C2F20000006801F059
:1049A000EFFC41EC1C0B40F62010C2F20000006846
:1049B00001F0E6FC41EC1D0B40F6FC00C2F20000E9
:1049C00090ED000A40F60410C2F200009FED4F1A6D
:1049D00090ED002A40F60C10C2F2000020EE01EA31
:1049E00090ED000A40F61410C2F2000022EE01FA27
:1049F00090ED002A40F61C10C2F2000060EE01EAC1
:104A000090ED000A40F62410C2F2000062EE01FAB6
:104A100090ED002A40F63410C2F20000006820EE4B
:104A2000018A62EE018A01F0ABFC41EC190B40F205
:104A3000BC00C2F20000057840F2B000C2F20000F3
:104A4000067840F6F400C2F20000077840F6DC2059
:104A5000C2F20000006801F093FC41EC1A0B40F632
:104A6000E020C2F20000006801F08AFC41EC100B6B
:104A700000208DED1A0BBCEEE80A8DED110A9DEDBC
:104A8000200B48F6B0628DED000B9DED1E0BCDE9BD
:104A900014508DED020B9DED1C0BBCEEC81ABCEE44
:104AA000EF2ABCEEEE3ABCEECF4ABCEECE5AC0F6D0
:104AB000000222A880218DED18ABCDE916678DED9F
:104AC000129B8DED0C5A8DED0D4A8DED0E3A8DED4C
:104AD0000F2A8DED101A8DED040B8DED06BB8DEDBB
:104AE00008CB8DED0ADBFBF785FC012808DB7F286E
:104AF00006D882B222A920464FF0FF33FEF71EFCF3
:104B000042B0BDEC108B01B0F0BD00BF00007A4494
:104B10005FEA400C08BF91F0000F4FEA8C234FEA88
:104B2000C12243EA51514FEA1C5018BF00F5F04032
:104B30004FEA300018BF41F000415FEA6C5C00F0C2
:104B40002980BCF1FF3F08BF40F080407047130C44
:104B500006BF12044FF0100C4FF0000C130E04BFF0
:104B600012020CF1080C130F04BF12010CF1040C1B
:104B7000930F04BF92000CF1020CD30F04BF52003C
:104B80000CF1010C11464FF00002A0F11F00A0EB48
:104B90000C00704711F0004F08BF704731F0004122
:104BA0003FF4D5AF0B0C06BF09044FF0100C4FF0CB
:104BB000000C0B0E04BF09020CF1080C0B0F04BF14
:104BC00009010CF1040C8B0F04BF89000CF1020CDD
:104BD000CB0F04BF49000CF1010CCCF1200322FAE9
:104BE00003F341EA030102FA0CF2A0EB0C0000F11E
:104BF0000100704723F07F4720F07F4C80EA0300DC
:104C000000F00040ACEB070303F57C5303F1FF0316
:104C10002DE9804909B44FEA144324EA03484FEAD6
:104C2000154B25EA0B4E0FF2042606EB13273E78B0
:104C300003FB0667C7F5000707FB06F64FEAD646F3
:104C400006F102064FEA543707FB066CCCF1005C14
:104C50004FEA1C472CEA074C0CFB06F507FB06F451
:104C600004EB15464FEA961649085FEA320234BF54
:104C700000204FF000404FEAD13706FB07FC4FEA17
:104C80001C4C0CFB0BF7D21B03FB0CF761EB070171
:104C90000CFB0EF7B0EB074072EB17420CFB08F76A
:104CA00034BFA2EB0742B2EB074261EB17414FEA78
:104CB0000C444FEA910706FB07FC4FEA1C4C0CFB27
:104CC0000BF7B0EBC74072EB573203FB0CF734BF66
:104CD000A2EBC742B2EBC74261EB57310CFB0EF7B8
:104CE000B0EBC70072EB57720CFB08F734BFA2EBB6
:104CF000C702B2EBC70261EB57714FEA816141EA2B
:104D000092114FEA826242EA90124FEA806004EB0D
:104D1000CC04039F4FEAD13706FB07FC4FEA1C4C3B
:104D20000CFB0BF7D21B03FB0CF761EB07010CFB31
:104D30000EF7B0EB074072EB17420CFB08F734BFDD
:104D4000A2EB0742B2EB074261EB17414FEA8C55E9
:104D500004EB9C244FEA910706FB07FC4FEA1C4C2E
:104D60000CFB0BF7B0EBC74072EB573203FB0CF7B1
:104D700034BFA2EBC742B2EBC74261EB57310CFB29
:104D80000EF7B0EBC70072EB57720CFB08F734BF9D
:104D9000A2EBC702B2EBC70261EB57714FEA816128
:104DA00041EA92114FEA826242EA90124FEA806031
:104DB00015EB4C2544F100044FEAD13706FB07FC04
:104DC0004FEA1C4C0CFB0BF7D21B03FB0CF761EBFF
:104DD00007010CFB0EF7B0EB074072EB17420CFB20
:104DE00008F734BFA2EB0742B2EB074261EB174171
:104DF0004FEA813141EA92414FEA823242EA9042DF
:104E00004FEA80304FEA0C7615EB1C1544F1000494
:104E100048EA03434EEA0B484FF0000EB2EB080C91
:104E200071EB030724BF624639464EEB0E0E4FF07E
:104E3000000B0018524149414BEB0B0BB2EB080C35
:104E400071EB03077BF1000B24BF624639464EEB42
:104E50000E0E4FF0000B0018524149414BEB0B0B6B
:104E6000B2EB080C71EB03077BF1000B24BF624629
:104E700039464EEB0E0E51EA020718BF46F0010606
:104E800016EB0E7655F1000254F1000103D5BDE892
:104E90008901BDE80088BDE88901BDE80048B61970
:104EA000524141EB0101A3F10103704780807F7EF5
:104EB0007D7C7B7A79787776767574737271717090
:104EC0006F6E6E6D6C6C6B6A6A6968686766666542
:104ED0006464636362616160605F5F5E5E5D5D5CD0
:104EE0005C5B5B5A5A595958585757565655555541
:104EF0005454535352525251515050504F4F4F4EA1
:104F00004E4D4D4D4C4C4C4B4B4B4A4A4A494949EE
:104F10004848484747474746464645454544444430
:104F200044434343434242424241414110B546EA71
:104F300006464FEA164646EA42564FEAD22242EA6F
:104F400041524FEAD121A3F57053A3F1010300F0C0
:104F50002FF820F0004000F0004700F1020CBCF5F3
:104F6000006F01EB0050114640EA070000D210BD6F
:104F7000BAF1000F0AD01CB503B44FF004004FF093
:104F800004014FF000000FBCBDE810404FF00001DD
:104F9000BBF1010FB9BF04484FF0FF3103480021B6
:104FA00040EA070010BD00BFFFFFEF7F0000F07F69
:104FB0009C46002B30D477002BD04FEA37071CB526
:104FC00003B44FF010004FF01001BAF1000F06D0FB
:104FD000BCF1000FDCBF40F0080040F008014FF0CA
:104FE00000000FBCBDE810400BF1010BBBF1010F3D
:104FF00008BF5FEA170722BF12F1010211F1010198
:105000004FF0004143F1000300F0004043EA00008C
:105010007047F9D35708D0E746EA06464FEA1646E6
:1050200013F1400F1FDD13F1200FDFBF16430A46B7
:10503000002120335B42BED0C3F1200746EA06467A
:105040004FEA164602FA07F746EA070622FA03F283
:10505000C3F1200701FA07F742EA070221FA03F138
:105060004FF00003A7E746EA020646EA06464FEA83
:10507000164646EA0106BCBF46EA0646360C4FF025
:1050800000034FF000024FF0000194E72DE9804C3F
:1050900070B49A46934691E8380007C831EA400C4C
:1050A00048BF34EA430C03D5FFF7A4FDFFF780FFA8
:1050B000F0BCBDE8008C2DE9804C70B49A46934654
:1050C00091E8380007C831EA400C48BF34EA430C85
:1050D00003D5FFF78FFDFFF729FFF0BCBDE8008C7B
:1050E0002DE9804C70B49A46934691E8380007C881
:1050F00010F0804F08BF13F0804F03D100F01AF872
:10510000FFF756FFF0BCBDE8008C2DE9804C70B471
:105110009A46934691E8380007C810F0804F08BFC0
:1051200013F0804F03D100F005F8FFF7FFFEF0BC4D
:10513000BDE8008C20F07F4723F07F4C80EA03001D
:1051400000F0004007EB0C03A3F57C53A3F1FE0332
:1051500092F0000F00F0B38095F0000F00F0778020
:105160002DE901494FEA114021EA00484FEA14466F
:1051700024EA064700FB06FC08FB06F607FB08F8D6
:1051800018EB06484CEB164C00FB07F718EB0748EA
:105190004CEB17404FEA124B22EA0B4E4FEA1546F2
:1051A00025EA06470BFB06FC0EFB06F607FB0EFE88
:1051B0001EEB064E4CEB164C0BFB07F71EEB074E97
:1051C0004CEB174B18EB0B0840F1000018EB0E0BE3
:1051D00058EB000840F100008F1A4FF000014FF02B
:1051E00000063CBFC943661B14BFB5EB040C00218D
:1051F0003CBFC943F61B4FEA174427EA04454FEA70
:105200001C472CEA074C04FB076205FB07F70CFB65
:1052100005F616EB074642EB174204FB0CFC16EBB7
:105220000C4642EB1C421BEB060658EB02024141C6
:105230004EEA8E0E46EA9E0601D5BDE80189B619F2
:10524000524141EB0101A3F10103BDE801894FEA9D
:10525000144524EA05464FEA114721EA074C05FBAD
:1052600007F406FB07F70CFB06F111EB074144EBD3
:10527000174405FB0CFC11EB0C4144EB1C444FEABA
:10528000124722EA074C05FB07F206FB07F70CFB67
:1052900006F616EB074642EB174205FB0CFC16EB35
:1052A0000C4642EB1C456A1854F1000148BF704798
:1052B000B619524141EB0101A3F10103704795F08A
:1052C000000F37D04FEA114221EA02464FEA144755
:1052D00024EA074C02FB07F106FB07F70CFB06F478
:1052E00014EB074441EB174102FB0CFC14EB0C449C
:1052F00041EB1C414FEA154725EA074C02FB07F535
:1053000006FB07F70CFB06F616EB074645EB1745C1
:1053100002FB0CFC16EB0C4645EB1C42121951F13A
:10532000000148BF7047B619524141EB0101A3F19A
:10533000010370474FEA144524EA05464FEA114736
:1053400021EA074C05FB07F106FB07F70CFB06F209
:1053500012EB074241EB174105FB0CFC12EB0C4230
:1053600051EB1C414FF0000648BF7047921841EBCB
:105370000101A3F10103704703B4019841000098B3
:1053800050EAC12018BF04204A0D18BF40F00100A8
:1053900040F2FF72B2EB515F08BF40F002000128FB
:1053A00008BF052002B070474100080218BF042062
:1053B0000A0E18BF40F001004FF07F4232EA0101AF
:1053C00008BF40F00200012808BF05207047000018
:1053D00030B52DED048B81B0B0EE408AF0EE608ADE
:1053E0006A4651EC180B00F067FD00989FED329B68
:1053F0007E300090002821DC53EC192B51EC180B67
:1054000000F012FE1AD0002140F608004FF0000014
:10541000044651EC180B00F0C1FD08EE100A40F6EE
:10542000080004EA00014FF00000B5EEC08AF1EE7A
:1054300010FA04BF0220FBF72FFB2DE00098FF2895
:1054400030DB002108464FF0000000F4400553EC2B
:10545000192B51EC180B00F05DFF8CBF00240124C8
:105460000220FBF719FB9FED168A4DB1002C0CBFF3
:105470004FF400004FF48000A84218BF9FED118A3E
:10548000042108464FF00000002C01BFB1EE480A8D
:1054900001B0BDEC048B30BDB0EE480A01B0BDECEC
:1054A000048B30BD51EC180B00F078FD01B000EE1C
:1054B000100ABDEC048B30BD0000000000000000AD
:1054C0000000807FFFFF7F7F10B510EE104A4FF085
:1054D00019406949002200EB44002DED028B8842FF
:1054E00057D8DFED660A14F0004F60EE200A14BFB3
:1054F000BEEE001AB6EE001A71EE200AFDEEE00ACA
:1055000010EE900A00EE900AF8EEE00A9FED5C1AA9
:1055100000EEC10A9FED5B1A00EEC10ADFED5A0AE8
:105520009FED5A1A00EE201ADFED590A40EE010AEB
:105530009FED581A584B00F0030100EE201A21EE9F
:10554000000A7B4403EB8103D3ED000A534B7B44F9
:1055500003EB810393ED001A514B41EE000A7B44AB
:1055600003EB8101801091ED000A70EE800AEABB26
:1055700000EE100AB8EEC01ADFED4A1A9FED4A0A93
:10558000BDEC028B01EE210ABCEEC00A20EE200A1F
:1055900010BD4FF0FF40A0431DD04FF0CE40B0EB08
:1055A000440F81BFF7EE000A30EE200ABDEC028BFB
:1055B00010BD3E48B0EB440F28BF012291D202201B
:1055C000FBF76AFA14F0004F15D0BDEC028BBDE872
:1055D000104000F04DBC14F5000F02BF9FED340ADF
:1055E000BDEC028B10BDBDEC028B00E009E0BDE814
:1055F000104000F027BCBDEC028BBDE8104000F06D
:105600002FBC00EBD07359104FF07E5202EBC1510A
:1056100000EE101AA0EB630002EBC05060EE200A0F
:1056200000EE100A20EE208A18EE100A88B118EE5B
:10563000100AB0F1FF4F15D018EE100AFFF7B4FEB4
:10564000042808BF00F014FCB0EE480ABDEC028B41
:1056500010BD0220FBF720FABDEC028BBDE8104024
:1056600000F006BC0220FBF717FABDEC028BBDE888
:10567000104000F0F5BB00000000501E3BAAB840EF
:105680000070313EF4FD053712BB2A3D12BB2A3EA5
:10569000FFFFFF3EFFFF7F3F9E100000A2100000B3
:1056A000721000000000004B00007E4E0000A0853C
:1056B000000000000000000030B540F2FF742DED46
:1056C000048BF0EE608A18EE901A85B0B0EE408A36
:1056D0009FED2B9B05468DED008B34EA115147D091
:1056E00053EC192B51EC180B00F09EFC40D02A46CD
:1056F00051EC180B00F000FF41EC180B18EE900A6B
:105700008DED008B34EA10501CD053EC192B51EC6A
:10571000180B00F089FC2BD10220FBF7BDF900F03B
:1057200077FB10EE901A18EE900A8DED020B8DEDBE
:10573000008B61F31E0003909DED020B05B0BDECE4
:10574000048B30BD0220FBF7A7F900F051FB10EEEF
:10575000901A18EE900A8DED020B8DED008B61F31F
:105760001E0003909DED020B05B0BDEC048B30BD17
:1057700005B0B0EE480AF0EE680ABDEC048B30BD0F
:10578000000000000000000010B510EE100A2DED22
:10579000068BB7EE001A10EE901AB0EE418A002286
:1057A000A0F5000CDFEDFE9A4FF00073BCF1FE4F48
:1057B0004FF07F4403EB410C80F0B481BCF1804F8B
:1057C000C0F02082F74901449FEDF73AB1F5005F40
:1057D00040F2D48200F58021CB0C03F00F0101EEE2
:1057E000901AC3F307137F3BA0EBC350B8EEE12A36
:1057F00000EE100A1A44DFEDED2AF0EE411A42EEF7
:10580000221AF0EE613A70EE232A30EE632A12EE8D
:10581000900A00F500606FF30B0001EE900A73EE42
:10582000E13A33EE804AC1EE223A22EE230A10EE2C
:10583000100A00F500606FF30B0000EE100A00EE96
:10584000612A00EE442A62EE232A70EE221A21EE2B
:10585000A12ADFEDD73A02EE233A23EE023A20EEF8
:10586000012A22EE811A03EE211A32EE010A10EE0D
:10587000100A00F500606FF30B0000EE100A72EEE4
:10588000401A31EE812A9FEDCB1A60EE011A9FED8E
:10589000CA1A20EE011A9FEDC90A02EE001A31EE73
:1058A000810A10EE100A00F500606FF30B0000EEA5
:1058B000100AC34871EEC01A31EE812A784400EB19
:1058C000C10090ED003AD0ED011A100101EE100A6E
:1058D000F8EEC12A32EE211A31EE001A31EE031A27
:1058E00031EE221A11EE100A00F500606FF30B0082
:1058F00009EE100A39EE621A31EE431A31EE400A0F
:1059000030EE610A32EE40AA10EE900A002100F556
:1059100000606FF30B0008EE900A084670EEE8AAEC
:105920004FF0000029EE280A00F00C01F0EEC00A4A
:1059300010EE900AB0F18B4F0DDD10EE900AB4EB33
:10594000400F08D310EE100A4FF08B4262F31E0096
:1059500008EE900A13E069EE2A0A38EEAA1A4AEE17
:10596000010A30EE201A11EE100A00F500606FF304
:105970000B0008EE900A30EE680A70EE209A0C20B8
:105980004FF0000038EEA90AB5EEC00AF1EE10FAA9
:1059900034BFFEEE000AF6EE000A30EE800ABDEEDD
:1059A000C00A10EE100A011100EE101AF8EEC00A3B
:1059B00000EE100AB8EEC00A38EEC00A30EE290A2E
:1059C000DFED801A9FED801A00EE211ADFED7F1ABD
:1059D0007F4900F00F0040EE011A21EE800A794461
:1059E00001EB800191ED001A7A49794401EB8001C5
:1059F000D1ED001A784901EE801A794401EB80005C
:105A0000764990ED000A31EE001AB0EEE00A10EE91
:105A1000100A884215DA10EE100AB4EB400F10D3CA
:105A20009FED6F0A30EE800ADFED6E0A20EE200A4D
:105A300068EE010ABDEC068BBCEEC00A20EE200A1F
:105A400010BD10EE100A6849884243DA10EE100AC1
:105A5000B4EB400F3ED3BDEEE00A68EE010A10EE53
:105A6000100A00EBD0725110C90501F17E5100EE11
:105A7000101AA0EB6200C00560EE200A00F17E5013
:105A800000EE100A60EE808A18EE900AB4EB400F28
:105A90000FD10220FBF700F800F0E2F910EE101A27
:105AA00018EE100ABDEC068B61F31E0000EE100A22
:105AB00010BD18EE900A400011D018EE900AFFF7C2
:105AC00073FC042808BF00F0D3F9B0EE680ABDECFF
:105AD000068B10BDF5EEC00AF1EE10FA0FD20220CF
